:100000000C94A3010C94EA010C94EA010C94EA010B
:100010000C94EA010C94EA010C94EA010C94EA01B4
:100020000C94EA010C94EA010C946A180C942618BA
:100030000C9465190C94EA010C94EA010C94EA0101
:100040000C94EA010C94EA010C94EA010C94EA0184
:100050000C94EA010C9441190C94EA010C94EA0105
:100060000C94EA010C94EA010C94EA010C94EA0164
:100070000C94EA010C94EA010C94EA010C94EA0154
:100080000C94EA010C94EA010C94EA010C94EA0144
:100090000C94EA010C94EA010C94EA010C94EA0134
:1000A0000C94EA010C94EA010C94EA01050109029E
:1000B000A10185020901A1000509190129081500FE
:1000C0002501950875018102050109300931158165
:1000D000257F95027508810609381581257F9501D0
:1000E00075088106050C0A38021581257F95017572
:1000F000088106C0C005010980A101850319012AF4
:10010000B700150126B700950175108100C0050CD8
:100110000901A101850419012AA002150126A002E6
:10012000950175108100C005010906A1018505052D
:100130000719E029E71500250195087501810205D9
:1001400007190029EF1500250195F07501810205B9
:10015000081901290595057501910295017503910D
:1001600001C00660FF0961A1010962150026FF00B8
:100170009520750881020963150026FF00952075FA
:10018000089102C005010906A101050719E029E748
:1001900015002501950875018102950175088101F9
:1001A0000507190029FF150026FF0095067508812F
:1001B000000508190129059505750191029501753C
:1001C000039101C0000000000000000000000000DA
:1001D000000000000000000000000000000000001F
:1001E00000000000000000007E0F00D4FFFFFFC7EA
:1001F0000000007800000000000000002A2B28000A
:1002000000000000000000000000000000000029C5
:10021000000000002C1E3420212224342627252E05
:10022000362D3738271E1F2021222324252633333D
:10023000362E37381F0405060708090A0B0C0D0E69
:100240000F101112131415161718191A1B1C1D2F35
:100250003130232D350405060708090A0B0C0D0E55
:100260000F101112131415161718191A1B1C1D2F15
:100270003130354C3A003B003C003D003E003F0031
:1002800040000151010001000100010001000100D6
:100290000100010001000100010001000100010056
:1002A0000100010001000100010001000100010046
:1002B0000100010009025B00030100A0FA0904002B
:1002C0000001030101000921110100012240000782
:1002D00005810308000A0904010002030000000967
:1002E00021110100012222000705820320000107DD
:1002F00005030320000109040200010300000009B6
:10030000211101000122B6000705840320000A1212
:10031000010002000000086A2545420100010200B8
:10032000010A03530053004D005000000012033235
:1003300000350036006B006C006100620073000045
:1003400000040309040011241FBECFEFDAE0DEBF72
:10035000CDBF04B603FE27C0809111029091120216
:10036000A0911302B09114028730904BA740B04B7C
:10037000D1F41092110210921202109213021092F4
:10038000140214BE84B7877F84BF0FB6F894A89573
:1003900080916000886180936000109260000FBEC1
:1003A000E0E0F8E3099511E0A0E0B1E0EEE3FCE362
:1003B00002C005900D92A235B107D9F722E0A2E55F
:1003C000B1E001C01D92A131B207E1F70E948C1982
:1003D0000C94E61D0C940000E8EDF0E080818E7F27
:1003E00080831092E2001092DA001092E100A0EEF9
:1003F000B0E08C9181608C9380818F77808319BC71
:10040000A7EDB0E08C918E7F8C9380818F7E80836E
:100410001092DE0108952091E4003091E50095E608
:10042000A9012091EC00822F817020FF06C08091ED
:10043000E80080FF06C080E008952091E80022FDDA
:100440001AC080910302882389F0853089F0809159
:10045000EB0085FD0FC02091E4003091E5004217CC
:100460005307F9F29150E1F684E0089582E008958F
:1004700083E0089581E00895EF92FF920F931F9318
:10048000CF937C018B010E940B02C82F811117C0F2
:100490008091E80085FD0BC08091E8008E77809305
:1004A000E8000E940B02882399F3C82F08C0F701C7
:1004B00081917F018093F1000150110949F78C2F40
:1004C000CF911F910F91FF90EF90089580910502B9
:1004D00087FF13C08091E80082FF06C08091E8008A
:1004E0008B778093E80004C0809103028111F2CFE2
:1004F0000895809103028823D9F38091E80080FF5A
:10050000F8CF8091E8008E77ECCF982F9093E90098
:10051000242F762F50E0891731F07091EC00209154
:10052000ED005091F00021FD07C09F5F973071F7FB
:100530008093E90081E008953091EB003E7F309395
:10054000EB003091ED003D7F3093ED003091EB00FA
:1005500031603093EB007093EC002093ED005093EA
:10056000F0002091EE0027FDE0CF80E00895CF92CB
:10057000DF92EF92FF920F931F93CF93DF93C8ED1B
:10058000D0E088818F7E8883E7EDF0E08081816014
:10059000808384E082BF81E08093DE0188818E7F4A
:1005A000888302EE10E0F80110821092DA0081EEEA
:1005B000C82ED12CF601108288818F77888388819C
:1005C0008068888388818F7D888319BC109203029C
:1005D00010920402109202021092010290EEE92E93
:1005E000F12CF70180818B7F8083888181608883F3
:1005F00042E060E080E00E948502F60180818E7F0B
:100600008083F8018081816080838081886080831D
:10061000F70180818E7F8083888180618883DF916C
:10062000CF911F910F91FF90EF90DF90CF900895A1
:10063000FC0180910B0290910C0286179707A0F0A5
:100640006115710529F49091E8009E779093E80078
:1006500090E06115710551F4911108C08091E80096
:1006600082FF34C080E00895BC01F2CF8091030284
:100670008823C1F18530C1F18091E80083FD30C04D
:100680008091E80082FDEACF8091E80080FFE1CF11
:100690008091F3002091F200382F6115710519F057
:1006A0002830310558F091E02830310509F090E00C
:1006B0002091E8002E772093E800CBCF81918093A2
:1006C000F100615071092F5F3F4FE7CF8091030226
:1006D000882341F0853041F08091E80083FFBECF50
:1006E00081E0089582E0089583E008958091E0011B
:1006F00008959C014FB7F8948091D5019091D6014F
:10070000A091D701B091D8014FBF821B930B0895E0
:100710002FB7F8948091D5019091D601A091D7017F
:10072000B091D8012FBF08952091D2013091D3010B
:100730002817390771F09093D3018093D201E0918B
:10074000D001F091D101309721F00084F185E02DA6
:10075000099408952091CE013091CF0128173907CF
:1007600071F09093CF018093CE01E091D001F09190
:10077000D101309721F00680F781E02D099408958A
:10078000E091D001F091D101309721F00190F081FA
:10079000E02D099480E008950E9488039C019091C7
:1007A000CA018091CB01982B21F03093C70120938F
:1007B000C6019091CC018091CD01982B21F030930E
:1007C000C5012093C401E091D001F091D10130978F
:1007D00049F082E08093C8010480F581E02D88EC27
:1007E00091E0099408954091CA01803F59F48091A5
:1007F000CB0187FF0DC01092CB0141110BC01092AD
:10080000C20108C0813F81F48091CB0118169CF38E
:10081000442381F08091CC019091CD01892B09F086
:100820005AC01092C1010895823F49F447FFF0CFAA
:100830001092CA018091CB018111ECCFE0CF833FB0
:1008400019F41416ACF3E4CF9091CC01893F29F44C
:100850001916F4F61092CC01DBCF8A3F19F497FFFA
:10086000D7CFF8CF9091CD018B3F29F497FFD0CF10
:100870001092CD01CDCF8C3F19F41916CCF3C8CF0F
:100880009CE0980F953090F4845F990B21E030E064
:10089000B90102C0660F771F8A95E2F7CB018095F8
:1008A0009091C90189238093C901B2CF8D3F31F462
:1008B0008091C3018E7F8093C301AACF8E3F21F424
:1008C0008091C3018D7FF7CF8F3F09F0A1CF809139
:1008D000C3018B7FF0CF08958091C30180FD16C0C6
:1008E00081FD16C082FD16C08091C1018823A1F050
:1008F000883280F428E0829FC001112468E270E011
:100900000E94621D862F672B39F0089582E00895BA
:1009100084E0089588E0089581E008958091C301FE
:1009200080FD14C081FD14C082FD16C08091C201FB
:10093000882381F0843180F422E3829FC001112456
:1009400064E170E00E94621D862F08958CE0089596
:1009500089E1089585E0089582E30895803F31F4A8
:100960000E948E0481958093CB010895813F19F4F4
:100970000E948E04F8CF823F31F40E948E0481954C
:100980008093CA010895833F19F40E948E04F8CF22
:10099000893F29F40E946C048093CC0108958A3F1A
:1009A00021F40E946C048195F7CF8B3F31F40E94B3
:1009B0006C0481958093CD0108958C3F19F40E94B9
:1009C0006C04F8CF9CE0980F953070F4845F990B1D
:1009D00021E030E001C0220F8A95EAF78091C90139
:1009E000822B8093C90108958D3F31F48091C3011A
:1009F00081608093C30108958E3F21F48091C301EB
:100A00008260F7CF8F3FB9F78091C3018460F1CF47
:100A100080E00895F894E82FE295EF70F0E031A1BE
:100A2000282F2F7081E090E001C0880F2A95EAF707
:100A3000982F9095932391A392A1892B82A37894C8
:100A400008959091D90192FF06C0282F287128306F
:100A5000F9F4877F846093FF06C0282F287128311E
:100A6000F1F4877E84612091DA0120FF06C0382FDF
:100A700038713830D9F4877F816021FF06C0282F74
:100A800028712831D1F4877E816194FD877E089595
:100A9000282F24712430F9F68B7F8860DCCF282F33
:100AA0002471243101F78B7E8861DDCF382F3171BD
:100AB000313019F78E7F8860E0CF282F21712131E6
:100AC00021F78E7E8861E1CFCF93DF93EC018238EE
:100AD0009105A9F1D8F58133910509F496C048F53F
:100AE0008932910509F48AC08A9709F495C0C11525
:100AF00021E5D20708F0BCC0C11530E5D30708F0E6
:100B000014C1C83ED10508F09CC0C13ED10560F5B6
:100B1000C83AD10508F087C0C53AD10508F0FDC034
:100B2000C130D10509F12097F9F0C430D105E0F4C6
:100B300040C08533910509F45AC0C997C1F6809128
:100B4000D901837089F0C0EED0E00EC0833E9105DC
:100B500099F170F4803E910501F1823E910539F6DC
:100B60008091D90182FD21C0CE01DF91CF910895FE
:100B7000863E910561F1873E910571F1843E9105B4
:100B800009F0B5CF8091DA0181FFEECF8091D901D4
:100B9000C7EED0E084FD0DC0E7CF8091D90180FD84
:100BA00012C19091DA0190FFDFCFC3EED0E084FF55
:100BB000DBCFD0E0C0E0D8CF8091D90182FD06C163
:100BC0009091DA0190FDBFCF84FFCECFF2CF80911C
:100BD000D90183FDDDCFC8CF8091D90183FDF9C054
:100BE0009091DA0191FFF0CFC4EED0E0BDCF8091BB
:100BF000D90185FFB9CFC9E2D0E0B6CF8091D90144
:100C000085FFB2CFC5E3D0E0AFCF8091D90186FF99
:100C1000ABCFCAE2D0E0A8CF8091D90186FFA4CFA4
:100C2000C1E3D0E0A1CFCF3BD10518F6C85AD0E040
:100C3000CC0FDD1FC25FDE4F0990D881C02DD46478
:100C400093CFC11540E2D40758F4C11581E0D8070D
:100C500008F08ACFC03FD10508F4ABCFD06584CF70
:100C6000C11590E4D90708F4A4CFDF70D06A7CCF17
:100C7000C11525E5D20700F5C11534E5D30708F005
:100C80008AC0C11543E5D40708F071C0C11582E5DB
:100C9000D80708F467C0CE018370992721E030E0BF
:100CA00002C0220F331F8A95E2F7C695C69580E2EF
:100CB000C89FE001112452C0C11599E5D907A8F4D5
:100CC000C11528E5D20708F06BC0C11536E5D3077A
:100CD00008F06FCF8C2F0E942105C82FD0E0DC2FA9
:100CE000CC27CC27DF71D0623FCFC1154AE5D407AE
:100CF00008F45BC0CE0190568115904208F059CFA0
:100D00008D2F8F710E94210590E0982F88278827CA
:100D10009F719C012C2BE901E6CFC55AD0E0C55F3D
:100D2000DE4FC881D0E0D0641FCFCE01E4E09695BD
:100D30008795EA95E1F783702C2F269526952370E9
:100D400040E2249F90011124382B8C2F8370C1E046
:100D5000D0E002C0CC0FDD1F8A95E2F7C22BD32B67
:100D6000DC6802CFDC2FCC27C16FD06AFDCECE016C
:100D70008370992721E030E002C0220F331F8A954B
:100D8000E2F7C695C69590E2C99FE0011124C22BF7
:100D9000D32BDA68E9CEDC2FCC27C46FD06AE4CE3F
:100DA000DC2FCC27C06FD06ADFCE8C2F8F700E94D3
:100DB000210534E0D695C7953A95E1F7CF709C2F81
:100DC000EC01D069D1CEC9E3D0E0CECEC2EED0E006
:100DD000CBCEC6EED0E0C8CE8091B4018111109286
:100DE000B40108958091B3019091B201892B909143
:100DF000B101892B809354019091B4019923A1F002
:100E0000892B8093540180910A01882341F18091BC
:100E1000D90187FF24C08EE1E6E5F1E090E0815042
:100E200000F591110E94EC06E091D001F091D10102
:100E30003097E1F080910A01882359F08091D9011F
:100E400087FF07C0809154018093550185E080930E
:100E500054010280F381E02D84E591E0099486E05D
:100E6000DBCF21912223D9F29F5FD9CF08959091B2
:100E70000A019923D1F09091D90197FF16C0E82F6C
:100E8000E695E695E695EE31E0F4F0E0EC5AFE4F9B
:100E9000282F277081E090E001C0880F2A95EAF79B
:100EA00080959281892382830895E6E5F1E091910E
:100EB000891303C0DF0111971C9291E0EC35F9070B
:100EC000B1F7089590910A019923C1F09091D90149
:100ED00097FF14C0E82FE695E695E695EE31F8F415
:100EE000F0E0EC5AFE4F877021E030E001C0220FA5
:100EF0008A95EAF78281822B82830895A6E5B1E084
:100F0000EFEF90E02D91821751F0EF3F19F421118E
:100F100001C0E92F9F5F9630A9F7EF3F09F40895CC
:100F20000E2E000CFF0BEC5AFE4FE6CF8091AF0166
:100F300090917E01981301C008958F5F8770FACF5A
:100F4000990F990F890F982F97708695869586959A
:100F500023E0829FF0011124EB58FE4F50E040E067
:100F600080E0219130E0092E02C0369527950A9441
:100F7000E2F721703327042E01C0220F0A94EAF70A
:100F8000822B4F5F5F4F4330510559F70895990FFA
:100F9000990F890F982F977041E001C0440F9A95DF
:100FA000EAF786958695869593E0899FF00111244E
:100FB000EB58FE4F30E020E070E05191DF011197D7
:100FC000CB01022E02C0969587950A94E2F78170B4
:100FD00081958527842385278C932F5F3F4F23306E
:100FE000310559F7089590E080E00E94AA0390E04F
:100FF00080E00E9494031092B2011092B1010E940D
:10100000F20686E0E8ECF1E0DF011D928A95E9F74F
:101010001092C2011092C1011092C3010C94CC0332
:10102000809310020C94F30780911002982F967011
:10103000963019F488600C941008877FFCCF21E06B
:1010400030E001C0220F8A95EAF7209580911002C6
:1010500082230C9410089091B0018095892380938D
:10106000B001282F277039F4282F082E000C330BDD
:101070009217130621F49091DA0192FF07C085952B
:10108000859585950E941F081092B001089521E072
:1010900030E001C0220F8A95EAF780911002822B7E
:1010A0000C9410088093B5010C94F307882341F049
:1010B00080959091B30189238093B3010C94F2063B
:1010C0000895882339F09091B301982B9093B30140
:1010D0000C94F2060895882309F459C0823871F4FB
:1010E0000E94C00381FF53C089E30E9462070E94EF
:1010F000F20689E30E9437070C94F206833859F40C
:101100000E94C00380FF43C083E50E9462070E94E3
:10111000F20683E5EFCF843859F40E94C00382FFC2
:1011200036C087E40E9462070E94F20687E4E2CF9D
:101130009CEF980F913AF0F290E2980F983088F473
:10114000877021E030E0A90102C0440F551F8A9545
:10115000E2F7CA0180959091B30189238093B3018E
:10116000CBCF9BE5980F933020F490E080E00C9477
:10117000AA0398E5980F973120F490E080E00C9452
:101180009403803F20F00E94F3030C94CC03089555
:1011900090910302943029F58093DB017093DD0177
:1011A0006093DC019093E9008FEF9091E80081500B
:1011B00095FD06C095ED9A95F1F700008111F5CFE8
:1011C0008091E80085FF0DC050E040E063E070E0F2
:1011D0008BED91E00E943C028091E8008E77809335
:1011E000E8000895BC0184E00C94C808BC0183E0C9
:1011F0000C94C8089C0184E08093E9009FEF8091E3
:10120000E800915085FD06C085ED8A95F1F7000054
:101210009111F5CF8091E80085FF0CC050E040E0CF
:1012200066E070E0C9010E943C028091E8008E7780
:101230008093E8000895CF93DF93EC0180910A0139
:101240008823B1F18091D90187FF32C060E284E048
:101250008093E9008FEF9091E800815095FD06C0E2
:1012600095ED9A95F1F700008111F5CF8091E80096
:1012700085FF1BC080910A0170E050E040E08111C1
:1012800004C050E040E068E070E0CE010E943C0203
:101290008091E8008E778093E80080E2FE01A1EE65
:1012A000B1E001900D928A95E1F7DF91CF91089519
:1012B00068E081E0CDCF81E08093E00080E2809320
:1012C000D8001092C9008FE19EE40197F1F700C0A9
:1012D000000087E090EBDC018093110290931202F2
:1012E000A0931302B093140288E19CE00FB6F89427
:1012F000A895809360000FBE90936000FFCFCF93BE
:10130000C82F882309F4AEC08238C1F40E94C003FC
:1013100081FDA8C089E30E9462070E94F2062FEFB8
:1013200081EE94E0215080409040E1F700C0000041
:1013300089E30E943707CF910C94F2068338A1F419
:101340000E94C00380FD8EC083E50E9462070E9458
:10135000F2062FEF81EE94E0215080409040E1F7BB
:1013600000C0000083E5E5CF8438A1F40E94C003EB
:1013700082FD78C087E40E9462070E94F2062FEF88
:1013800081EE94E0215080409040E1F700C00000E1
:1013900087E4CFCF8CEF8C0F813A88F580910A01DA
:1013A000882301F18091D90187FF1CC0EC2FE695BD
:1013B000E695E695F0E0EC5AFE4F828190E04C2FE6
:1013C000477021E030E002C0220F331F4A95E2F758
:1013D00082239323892B79F08C2F0E9437070E9458
:1013E000F20609C0E6E5F1E08191C817A9F321E012
:1013F000EC35F207C9F78C2F0E9462079CCF80E280
:101400008C0F883068F4C77021E030E001C0220FF3
:10141000CA95EAF78091B301822B8093B3018BCFF9
:10142000EBE5EC0FE33040F4F0E0E55FFE4F808148
:1014300090E0CF910C94AA03E8E5EC0FE73150F46B
:10144000F0E0EE0FFF1FE25FFE4F80819181CF91B0
:101450000C949403C03F30F08C2F0E94AE04CF91C7
:101460000C94CC03CF9108951F93CF93DF93182F43
:10147000D0E0C0E0893311F4C0E5D0E0812F0E94B4
:101480007F09209731F4812FDF91CF911F910C9428
:101490006B088FE99FE00197F1F700C000002197EA
:1014A000F0CF0F931F93CF93DF93C62FD42F022F2C
:1014B000FC0182818823A1F060930F020E948803BF
:1014C00090930E0280930D02C77081E001C0880FD7
:1014D000CA95EAF7DF91CF911F910F910C946108A3
:1014E00080910F02681335C080910D0290910E0219
:1014F0000E947903883C910560F510E21D0FCD171D
:10150000B9F080E28C0F883040F4C77081E001C0F0
:10151000880FCA95EAF70E945608183048F481E00F
:101520009D2F977001C0880F9A95EAF70E94610875
:10153000802F0E94340A183098F4D77081E001C0DF
:10154000880FDA95EAF7DF91CF911F910F910C94F4
:101550005608C77081E001C0880FCA95EAF7F3CF3B
:10156000DF91CF911F910F910895CF93DF93C7E63D
:10157000D0E060E0CE010E94A51D2196C11584E057
:10158000D807B9F7DF91CF9108956F927F928F922C
:101590009F92AF92BF92CF92DF92EF92FF920F9302
:1015A0001F93CF93DF9384E7C82E82E0D82E0FE3FA
:1015B00010E0E801609736011CC0F5018590949019
:1015C000692DC7010E94A51D682DC70101960E94C3
:1015D000A51D82E0A80EB11C82E0E80EF11CCE151C
:1015E000DF0559F788E0680E711C28960C171D0757
:1015F00031F07E0188E0E81AF1085301DECF005F88
:101600001F4F80E1C80ED11C0F37110591F6DF91F5
:10161000CF911F910F91FF90EF90DF90CF90BF90EF
:10162000AF909F908F907F906F900895CF93C82F29
:101630006FEF811161E283E290E00E94A51D6FEFE0
:10164000C11161E184E290E00E94A51D6FEFC1111C
:1016500063E185E290E0CF910C94A51D80E00E94AB
:10166000160B60E086E290E00E94A51D0E94C50A6C
:101670000E94B50A81E00C94160BCF93C091DA0159
:10168000C2FB992790F9981781F080FBC2F9C093AB
:10169000DA016091D90184E090E00E94A51D6C2FD1
:1016A00082E290E0CF910C94A51DCF9108950F9305
:1016B0001F93CF93DF9328E0629FE001112450E055
:1016C000440F551FC40FD51F30E1839FC001112463
:1016D000C80FD91FCE0187960E94971D082F10E0D2
:1016E000102F0027CE0188960E94971D9801282B65
:1016F000C901DF91CF911F910F910895462F84303A
:1017000038F4723028F4643018F4672F0C94570BB7
:1017100090E080E00895CF92DF92FF920F931F93A5
:10172000CF93DF936C01009110028091B501082BDB
:10173000C7E0D0E010E0FC2EC8010C2E02C0959549
:1017400087950A94E2F780FD0CC02197A0F7F12C51
:101750008F2DDF91CF911F910F91FF90DF90CF9050
:101760000895B6018C2F0E947E0B0E94640501979C
:1017700061F3EECFCF93DF93EC010E948B0BBE01A0
:101780000E947E0BDF91CF910C946405FC01808157
:1017900091810E94BA0B292F2F7092959F709250C1
:1017A0009E3078F4E92FF0E0E851F24E0C94761D6B
:1017B000803F19F020F4883E20F481E00895843FB2
:1017C000E1F380E00895883EC0F3813FD1F7F5CF83
:1017D000822F869586958695089583E290E00E94F3
:1017E000971D813289F484E290E00E94971D813137
:1017F00059F485E290E00E94971D91E0833109F051
:1018000090E0892F8170089580E0FCCFCF9384E031
:1018100090E00E94971DC82F82E290E00E94971DE1
:10182000982F8C2FCF910895BF92CF92DF92EF9295
:10183000FF920F931F93CF93DF9300D0CDB7DEB706
:101840001A8219828CE3C82E81E0D82E10E000E0C5
:10185000EE24E394F12CF60181916F018F3F09F49E
:101860004CC0F894E82FE295EF70F0E021A18F7062
:10187000A70102C0440F551F8A95E2F7CA01922FB3
:10188000982B91A392A18095892382A3789400C07C
:10189000EEE3F1E030E020E0B12C41914F3F09F45C
:1018A00063C0A42FA295AF70B0E090968C9190E0A9
:1018B0004F7002C0959587954A95E2F780FD54C018
:1018C0008E2D022E01C0880F0A94EAF7B82A2F5FE6
:1018D0003F4F2430310509F7F601319780818F3F62
:1018E00011F00E940A0550EA5A95F1F7E1E0F0E0A4
:1018F000EC0FFD1FE00FF11FB0820130110589F5DB
:1019000042E050E0BE016F5F7F4F89EB91E00E94A3
:10191000D91D11E0009709F410E0892B39F1898174
:101920009A819093BA018093B90181E08093B801C4
:101930000E9488039093B7018093B6018091B6010D
:101940009091B7010E9479030597A0F08091B901A9
:101950008093BF018091BA018093C0011092B801B9
:1019600009C001E010E077CF80E0B0CF8091B801EE
:101970008111E4CF812F0F900F90DF91CF911F91B4
:101980000F91FF90EF90DF90CF90BF90089569EE98
:101990007EEF90E080E00E94C31D60E082E090E076
:1019A0000E94A51D60E083E090E00E94A51D1092BA
:1019B000B50160E084E090E00E94A51D60E082E255
:1019C00090E00E94A51D60E085E090E00E94A51DCA
:1019D00060E086E090E00E94A51D6FEF87E090E058
:1019E0000E94A51D40E050E0BA0188E090E00E940E
:1019F000B71D60E08DE090E00E94A51D40E050E042
:101A0000BA0188E190E00E94B71D60E087E190E0B4
:101A10000E94A51D40E050E0BA018CE190E00E94D8
:101A2000B71D70E060E080E290E00E94C31D40E0DE
:101A300050E0BA0188E190E00E94B71D80E00E946A
:101A4000160B0E942E0B40E050E0BA018FE090E0B0
:101A50000E94B71D40E050E0BA0183E190E00C9491
:101A6000B71D1092B30180910A01E6E5F1E08823E9
:101A700059F08091D90187FF07C08EE1DF011D92E7
:101A80008A95E9F70C94F30786E0F8CF1F93CF937C
:101A9000DF93CDB7DEB7AA970FB6F894DEBF0FBEBF
:101AA000CDBF85E092E02091F100DC012D93CD01C6
:101AB000B2E08D309B07B9F780910602833009F4BC
:101AC00071C0B8F4813009F448C0823009F4B2C062
:101AD0008091E80083FF3AC180910502909106024F
:101AE0009A3008F033C1E92FF0E0EA50F24E0C943E
:101AF000761D8A3009F48DC08B3009F470C08930AE
:101B000039F780910502813219F78091090290918D
:101B10000A02009711F00297D9F68091E800877FBA
:101B20008093E8008091E80082FF37C09091F30035
:101B30008091F200029729F48091F1008B7F81302F
:101B400021F48091F1008093E0018091E8008B778F
:101B50008093E8000E946602BBCF80910502813A23
:101B600009F0B6CF8091E800877F8093E8008091EC
:101B7000090290910A02892B61F460E281EE91E002
:101B800070E00E9418038091E8008B778093E80052
:101B90009FCF60E090E080E0F3CF8091030281115D
:101BA000C1CF96CF80910502813A09F091CF809103
:101BB000090290910A02892B09F08ACF8091E800EE
:101BC000877F8093E8008091E80080FFFCCF8091C0
:101BD0000A018093F1008091E8008E77B9CF80915F
:101BE0000502813209F074CF8091090290910A02B6
:101BF000892B09F06DCF8091E800877F8093E80002
:101C00000E9466028091070280930A010E94310DB2
:101C10005FCF80910502813209F05ACF8091E800B0
:101C2000877F8093E8000E9466028091080280937B
:101C3000DF014ECF80910502813A09F049CF8091B2
:101C4000E800877F8093E8008091E80080FFFCCF68
:101C50008091DF01BECF803899F0823809F076C0DC
:101C6000809109028F70873008F070C08093E9007E
:101C70008091EB0085FB882780F91092E90006C06F
:101C80008091010290910202911182609091E8008E
:101C9000977F9093E8008093F1001092F10080917B
:101CA000E8008E77B5C1882309F4A2C1823009F01B
:101CB0004DC0809107028111A6C1809109028F70E9
:101CC0002FEF280F263008F041C08093E9002091C3
:101CD000EB0020FF98C1933031F48091EB008062DB
:101CE0008093EB0090C19091EB0090619093EB009A
:101CF00021E030E001C0220F8A95EAF72093EA0044
:101D00001092EA008091EB008860EACF81111EC03A
:101D1000109107021F778091E3008078812B8093D8
:101D2000E3008091E800877F8093E8000E946602CC
:101D30008091E80080FFFCCF8091E3008068809371
:101D4000E30082E0111183E0809303028091E800B8
:101D500083FF0AC08091E800877F8093E80080912C
:101D6000EB0080628093EB00AA960FB6F894DEBF7A
:101D70000FBECDBFDF91CF911F9108958058823063
:101D800028F720910702309108022C3DE3E03E073E
:101D9000A1F583E08A838AE289834FB7F894DE0154
:101DA000139620E03EE051E2E32FF0E0509357001D
:101DB000E49120FF03C0E295EF703F5FEF708E2F3C
:101DC00090E0EA30C0F0C7968D939D932F5F243149
:101DD00059F74FBF8091E800877F8093E8006AE25F
:101DE00070E0CE0101960E9418038091E8008B7785
:101DF0008093E800ABCFC096E7CF80910902909125
:101E00000A02432F55274330510509F44AC078F59B
:101E10004130510509F47AC08BE590E0E4EBF2E043
:101E20004230510509F092CF2091E800277F20939E
:101E3000E80020910B0230910C028217930708F4FE
:101E40009C0140E02115310509F065C0411163C0D6
:101E50008091E80082FDC9CF80910302882329F296
:101E6000853019F28091E80083FFF2CFBECF413276
:101E7000510509F43CC04232510509F067CF833067
:101E8000910508F063CFFC01EE0FFF1FEB5BFE4FE7
:101E90000190F081E02D8E5B9E4FDC018C9190E0F3
:101EA0001AC0332721303105D1F02115310561F0F9
:101EB0002230310509F04ACFE1E2F3E0E4918E2FC0
:101EC00090E0E1E2F3E007C0E1E4F3E0E4918E2F7B
:101ED00090E0E1E4F3E0009709F438CFA5CFEDE21C
:101EE000F3E0E4918E2F90E0EDE2F3E0F4CF833065
:101EF000910508F02BCF880F991FFC01E55BFE4F81
:101F00000190F081E02D89E090E08ECF82E190E0B9
:101F1000EFE0F3E089CF80910302882309F465CFD5
:101F2000853009F462CF8091E80083FD5ECF809117
:101F3000E80082FD8DCF8091E80080FF83CF9091F3
:101F4000F3008091F2002115310519F088309105D8
:101F500050F041E0089709F040E08091E8008E776A
:101F60008093E8006FCF44914093F1003196215067
:101F700031090196E8CF803809F0E8CE8091E80079
:101F8000877F8093E800809104028093F10087CEE0
:101F90008111DCCE10910702123008F0D7CE80916B
:101FA000E800877F8093E800109304020E94660295
:101FB000112311F084E005C08091E30087FDFACF82
:101FC00081E08093030242E061EC81E00E9485029F
:101FD00042E261EC84E00E94850242E261EC82E030
:101FE0000E94850242E260EC83E00E948502AECE50
:101FF00080910702813009F0A9CE81E0933009F089
:1020000080E0809302021092E9008091E800877FCF
:102010008093E8000E94660299CE3F924F925F92B1
:102020006F927F928F929F92AF92BF92CF92DF92E8
:10203000EF92FF920F931F93CF93DF9300D000D0C6
:102040000F92CDB7DEB78C01FC0183819481892B7F
:1020500031F08081918189238F3F09F00EC50F9067
:102060000F900F900F900F90DF91CF911F910F91D4
:10207000FF90EF90DF90CF90BF90AF909F908F90A8
:102080007F906F905F904F903F9008950E948B0BD0
:10209000F82E682F89819A810E94C70769817A8109
:1020A0008F2D0E947E0B7C01F8018281882309F428
:1020B000D7C4970122513F452031310508F0A3C410
:1020C0008FEF93E00E94971DFEEEEF0E57E6852EF0
:1020D000912C882381F18091B001877009F4BFCFE2
:1020E000F8018281882309F4BACF82E00F900F9023
:1020F0000F900F900F90DF91CF911F910F91FF9054
:10210000EF90DF90CF90BF90AF909F908F907F9097
:102110006F905F904F903F900C942B08811424E0B7
:102120009206C9F2C4010E94971D811101C0EA9470
:102130003FEF831A930AE110F1CF1C821B824424E3
:1021400043944AE0342E74018FEFE81AF80AC40170
:102150000E94971D89831A82882309F4BCCF9FEFC0
:10216000980F933000F58A83498292E0890E911C82
:10217000C7010E94971D8B83882309F4ACCFFE0111
:1021800031967F01F70120812223E9F2213009F005
:1021900049C091818281913041F4F2E0EF0EF11C4F
:1021A0000E94340A09C04701EACF923049F422E084
:1021B000E20EF11C0E947F093FEFE31AF30AE2CF1F
:1021C000933031F432E0E30EF11C0E946B08F4CF3F
:1021D000943021F08FEFE81AF80AEECF92E0E90E82
:1021E000F11C30E020E0B7016F5F7F4FF7014181C4
:1021F0008053990B8A30910550F021503109E0F25B
:102200008FE99FE00197F1F700C00000F6CF329E02
:10221000F001339EF00D11249C012E0F3F1F842FDF
:102220007B01E1CFE22FF0E0EC50FE4F5490822F83
:1022300086958695869590E0FC01EC51FE4F649062
:102240002770712C022E02C0759467940A94E2F7ED
:10225000E1E06E227724FC01EC52FE4FA490B12CF9
:10226000022E02C0B594A7940A94E2F7F1E0AF22DF
:10227000BB24FC01EC53FE4FC490D12C02C0D5947A
:10228000C7942A95E2F721E0C222DD24611471048B
:1022900019F081EE0E947F09A114B10419F086EEB5
:1022A0000E947F09852D0E94340AAB2819F086EE22
:1022B0000E946B08672819F081EE0E946B08CD28F8
:1022C00009F47ACF8CE26CCF81E00E9447080E942B
:1022D000140801CF81E00E941F08F9CF82E0F5CFFA
:1022E00095EFE9169CE5F90609F46AC008F464C0A4
:1022F00027E245EE66EEF6EFEF16FCE5FF0609F481
:10230000ABC3882309F4CAC310920F0223E0E2167C
:102310002DE5F20608F05BC03AEFE3163CE5F30664
:1023200030F4C70182509C45449708F056C00E9483
:10233000060C9093DA018093D90190E1E9169CE5AF
:10234000F90609F431C108F0A3C0F8E0EF16FCE586
:10235000FF0609F41BC108F06CC034E0E3163CE54D
:10236000F30609F405C108F04EC092E0E9169CE5B9
:10237000F90609F4F7C08091D9018260E3E0EE1616
:10238000ECE5FE0609F4F1C06091D901F090DA01A4
:1023900084E090E00E94A51D6F2D82E290E00E94F3
:1023A000A51D0E94310D97CE27E245EE65EE54C380
:1023B00026E241EE60EE50C327E245EE64EE4CC3E8
:1023C00026E241EE62EE48C328E241E0EFCF81E62B
:1023D000E8168DE5F80609F4AACFF6E1EF16FCE55C
:1023E000FF0609F068C38091B3018A7A91E009F48D
:1023F00090E0909374018111FCC089E20E94620711
:102400000E94F20668CE8091D9018061F6E0EF1655
:10241000FCE5FF0609F4A9C08091D901886027E096
:10242000E2162CE5F20608F4A0C08091D901806282
:102430009CC08091D9018D7F3CE0E3163CE5F3061A
:1024400009F493C078F48091D9018C609AE0E91680
:102450009CE5F90609F489C008F49CC08091D90173
:102460008E7F83C08091D901877FFEE0EF16FCE567
:10247000FF0609F47AC08091D9018B7F2FE0E21624
:102480002CE5F20608F471C08091D9018F7E6DC0F1
:102490003CEFE3163CE5F30609F482C0A0F594E1B5
:1024A000E9169CE5F90609F493C098F4F2E1EF16F9
:1024B000FCE5FF0609F47CC08091D9018F7B23E104
:1024C000E2162CE5F20608F450C08091D901837F12
:1024D0004CC03AEFE3163CE5F30609F44DC008F0B2
:1024E00051C095E1E9169CE5F90609F04DCF8091C0
:1024F000D90182FB992790F921E0922790FB82F97C
:1025000090FB83F932C0E114EDE5FE0609F456C0F4
:10251000A0F48091DA0183602EEFE2162CE5F2063A
:1025200071F18091DA018D7F3FEFE3163CE5F30610
:1025300030F18091DA018C7F22C082E0E8168DE5CF
:10254000F80609F454C008F44CC0E1E6EE16EDE5D7
:10255000FE0609F019CF9091D901892F8F7E94FF43
:10256000806103C08091D90181608093D9010CCF33
:102570008091D9018460F9CF8091DA0181608093E4
:10258000DA0102CF8091DA018260F9CF8091D9011E
:102590008064EBCF0E94310D8091D9018068E5CF36
:1025A0008091DA018E7FEBCF8091D9018F7DDDCFD5
:1025B0000E94310D8091D9018F77D7CF8091DA01B8
:1025C000982F909591708E7F892B90FB81F9D7CFB2
:1025D0000E94310D9091D901892F97FB87F980587E
:1025E000C4CF61E08EE090E00E94A51DCDCE60E0FA
:1025F000F9CF85E303CF85E35BC20E94310D2FEF56
:1026000034E38CE0215030408040E1F700C000000E
:102610000E945B0981E075C280E073C2C7010E941D
:10262000A007D82E7FC22F2D2F70C22E8F2D807F16
:1026300019F0C29490EFC922DD20C9F0CC2069F0D6
:1026400080E28E0D883010F081100BC08091B301B4
:10265000C82AC092B3010E94F2068E2D0E947F0903
:1026600019C08091B201C82AC092B201F4CF8E2D58
:102670000E946B08CC2071F0C09480E28E0D8830EF
:1026800010F081103DC08091B301C822C092B30107
:102690000E94F206292D2850330B2430310510F406
:1026A0000E94C003AA2009F4DACC8091B00180FD19
:1026B000D6CCF80112828595859585950E944708AC
:1026C000C8010E940D108091B00185958595859572
:1026D0000F900F900F900F900F90DF91CF911F915F
:1026E0000F91FF90EF90DF90CF90BF90AF909F90B1
:1026F0008F907F906F905F904F903F900C941F0849
:102700008091B201C822C092B201C2CF3F2D3F706A
:10271000B32E8F2D807F803219F0B29480EFB822D3
:10272000882071F081E0881681F1DD20D9F1CC207C
:1027300091F1F801858180FF90CF8F7085832BC048
:10274000DD20B1F09091B4018B2D892BC11003C015
:102750000E9461089FCFE1E0CE12FACF2091DA010A
:1027600022FD98CF981709F495CF8093B40192CFAA
:10277000C11006C00E94EC068B2D0E9456088ACF1D
:10278000F1E0CF1609F486CFF5CFDD2031F025E05A
:102790002C1508F47FCF8B2DDBCF34E03C1508F4EB
:1027A00079CFEACFCC2041F3F9E38F1209C02FEFA4
:1027B00037EE83E0215030408040E1F700C0000058
:1027C0008E2D0E946B0866CF8F2D8695869583701F
:1027D00061F0813009F05ECFC7019370D11002C063
:1027E00090E080E00E94940355CFC7019370D11010
:1027F00002C090E080E00E94AA034CCF8E2DDD2025
:1028000029F00E94AE040E94CC0344CF0E94F3033F
:10281000FACF8F2D837091F5D1103CCF4E2D42957C
:1028200046954770440F440F8E2D8F70042E01C0C3
:10283000880F0A94EAF72E2D2071E4FE07C02FE0DE
:1028400030E001C0220F4A95EAF720953F2D3695DA
:1028500036953370323069F050F44091B501313023
:1028600029F0822B84230E94520814CF842B822BC0
:10287000FACF282B8091B5018227F5CF8695DD20F0
:1028800011F08F2D8170882309F404CF4E2D4295CD
:1028900046954770440F440F8E2D8F70042E01C053
:1028A000880F0A94EAF72E2D2071E4FE07C02FE06E
:1028B00030E001C0220F4A95EAF720953F2D36956A
:1028C00036953370323069F050F440911002313057
:1028D00029F0822B84230E941008DCCE842B822BCB
:1028E000FACF282B809110028227F5CF9F2D9F7061
:1028F000F92EDD2029F0892F0E9447088E2D28CF40
:102900008E2D0E9456088F2D0E941F08C3CE8E2D3B
:10291000E2EF8E1609F44BC0E81570F0F0EF8F1659
:1029200039F121EF8216D9F1DD2009F45CC0C11024
:1029300094CE8F2D8F7138C033EF8316E9F194EF69
:102940008912F2CFDD2009F443C02F2D2F71F22E12
:10295000822F0E9447088091DA0182FD07C038E08B
:10296000F39EC001112483608093B0018F2D1CC0A1
:10297000DD2081F0E4E0EC1508F48CCE2F2D2F71D2
:1029800081E090E001C0880F2A95EAF7909110024B
:102990008927A1CFF5E0FC1508F47CCEEFCF8F2D71
:1029A0008F71DD2009F4B0CF0E94470873CE8F2DC0
:1029B0008F71DD20C9F3A8CF80E0DD2009F48BCF33
:1029C0009F2D9F7181E001C0880F9A95EAF783CF10
:1029D00081E00E942B0881E08C1508F05BCE82E03C
:1029E0000E942B0857CECC2059F0893309F0E8CE4D
:1029F0009FEFE7EEF3E09150E040F040E1F7DECEEC
:102A00008F2D8F7181CFF0E1EF16FFE5FF0609F4FE
:102A10005BCC21E1E2162FE5F20609F45FCC93EFDF
:102A2000E9169CE5F90609F4C3CC08F059CCF8ED99
:102A3000EF16FCE5FF0609F4B7CC29EDE2162CE50C
:102A4000F20609F4C1CC37EDE3163CE5F30609F0D4
:102A500058CC26E241EE61EEC8010E94510A3BCB00
:102A600030E1E3163FE5F30609F434CC91E1E916D1
:102A70009FE5F906A1F682E02ECC85E0DE011196F5
:102A800001900D928A95E1F7F801228189819A815E
:102A90002111FCCA0E94A007F82E00CBF6E1EF1628
:102AA000FCE5FF0681F5809174018111A4CD89E2D6
:102AB0000E943707A5CC2AE5E2162DE5F20609F4B7
:102AC000A9CD68F4E1148CE5F80609F496CD9EEDE5
:102AD000E9169CE5F906B9F40E94C70CFCCAEBE5BF
:102AE000EE16EDE5FE0609F497CDFCE5EF16FDE5E3
:102AF000FF0649F48091DA0182FB882780F991E092
:102B000089270E943D0BF8018281E080F1808823B3
:102B100009F484CDC7010E948B0BD82E682FC70102
:102B20000E94C707B7018D2D0E947E0B0E9464058D
:102B30007C01882EF801D280C580C2943FE0C32278
:102B40008091B0018770A1F0AD2CDD2091F08F2D28
:102B5000807F803421F080E28E0D883048F082E062
:102B60000E942B088091B0018770AA24A394811140
:102B7000A12C9F2C92942FE09222FBE0F91508F4EF
:102B800089CDE92DF0E0E050F24E0C94761D1F93B4
:102B9000CF93DF9380917D01807FA9F480917A01AA
:102BA000882389F08091AF01D0917E0160917801F6
:102BB00070917901A0917B01B0917C01C62FC72350
:102BC00016E0D81304C0DF91CF911F91089590E0D3
:102BD000109711F0CF3F19F401968770F2CF189F2C
:102BE0009001199F300D1124F901E158FE4F4181E8
:102BF0004713F2CF40814613EFCF42814111ECCF12
:102C0000438154814A1B5B0B483C510528F7809156
:102C10007D018F70806180937D01F901EC57FE4F3B
:102C200080818F708061808388E791E00E940D1021
:102C3000DF91CF911F910C949607AF92BF92CF92E4
:102C4000DF92EF92FF920F931F93CF93DF93CDB755
:102C5000DEB761970FB6F894DEBF0FBECDBF8C0113
:102C600085E0F801DE011D9601900D928A95E1F74D
:102C7000F801E28088E7A82E81E0B82E60917B0100
:102C800070917C016115710509F432C19091780150
:102C900040917901892F84238F3F09F429C1208134
:102CA0003181C380D480F0907A01F601E61BF70BE6
:102CB000FF2009F4E8C080917D01582F507FE83C47
:102CC000F10508F0ABC0511177C0FE2C431321C0B1
:102CD00092131FC0E1101DC08F70806180937D0131
:102CE000C5010E940D1080917D01F80185838F2D13
:102CF00061960FB6F894DEBF0FBECDBFDF91CF91C6
:102D00001F910F91FF90EF90DF90CF90BF90AF9009
:102D10000895CD2829F0822F83238F3F09F003C126
:102D200080E0F82FF170DF2E80FF3CC08091AF0172
:102D300040917E0156E0841315C02D873E878D8516
:102D40009E850E94BA0B292F22952F702230F0F019
:102D5000243018F59F70F1F0F8019581907FD1F43F
:102D6000D12C1EC090E0589FF001599FF00D112406
:102D7000E158FE4F6181361306C06081261303C0FF
:102D80006281E6120FC001968770D5CF9F7011F057
:102D9000882331F3805E883018F3C8010E940D103B
:102DA000FD2CA5CFEE2009F4A2CF80917D0181609A
:102DB00080937D01F12C9BCF431306C0921304C076
:102DC000F801EE2009F479C0C8010E94C60B8823DF
:102DD00009F1EE20F9F080917D01803270F02091B0
:102DE00078013091790138872F831986DB86CA866E
:102DF0008C87CE0107960E940D1086E0F801A8E7A7
:102E0000B1E001900D928A95E1F70E94C715FF2469
:102E1000F3946DCFC8010E940D10F9CF51110AC073
:102E200088E791E00E940D1086E0F50111928A95E5
:102E3000E9F7C0CF43130FC092130DC0E1100BC0D0
:102E4000F8018583C8010E940D1086E0F5011192FA
:102E50008A95E9F74CCFC8010E94C60B8823D1F2AE
:102E6000EE20C1F280917D01803238F2209178010C
:102E7000309179013A8329831B82DD82CC828E8353
:102E8000CE010196B8CFE83CF105F8F6FE2CEE2015
:102E900009F243131FC092131DC080917D0180FD74
:102EA00010C0982F907F69F0F8018583903F31F032
:102EB000982F907F905F8F70892B8583C8010E9427
:102EC0000D1086E0F801A8E7B1E001900D928A9517
:102ED000E1F70DCFC8010E94C60B81118ECF809102
:102EE0007D01816080937D01C8010E940D10FFCE9D
:102EF000EE2009F48FCFC8010E94C60BF82E88235C
:102F000009F488CF86E0F801A8E7B1E001900D92BE
:102F10008A95E1F780917801909179010E94BA0B2E
:102F20000E94C715E4CE81E08E25FBCE1F93CF9380
:102F3000DF93CDB7DEB767970FB6F894DEBF0FBE4D
:102F4000CDBF4B8B5C8B6D8B7E8B8F8B6111109209
:102F5000B2011A8A198A85E0FE017396DE011D9678
:102F600001900D928A95E1F786E0FE013D96DE0123
:102F7000179601900D928A95E1F7CE0107960E946F
:102F80001D16882389F016E08091AF0190917E0193
:102F9000891349C067960FB6F894DEBF0FBECDBF48
:102FA000DF91CF911F91089586E0FE013796DE01F3
:102FB000119601900D928A95E1F78A859B85892B60
:102FC00011F38F81988589238F3FE9F220917E014B
:102FD00030E0C9010196877099274091AF014817E9
:102FE000190671F40E94310D10927E011092AF010A
:102FF00086E0E8E7F1E0DF011D928A95E9F7C3CFAB
:1030000096E0929FD001939FB00D1124A158BE4F1E
:10301000FE01319601900D929A95E1F780937E0121
:103020000E949607B0CF819FC001112481589E4F06
:103030000E941D16882309F4ADCF8091AF0190E066
:103040000196877099278093AF019ECF1F920F92B0
:103050000FB60F9211242F933F934F935F936F936B
:103060007F938F939F93AF93BF93CF93DF93EF9310
:10307000FF93D091E900DF708091EC00C82FC17000
:1030800080FDC0E81092E9008091F000877F809376
:10309000F00078940E94460D1092E9008091F000B3
:1030A00088608093F000CD2BCF70C093E900FF9132
:1030B000EF91DF91CF91BF91AF919F918F917F91D0
:1030C0006F915F914F913F912F910F900FBE0F9095
:1030D0001F9018951F920F920FB60F9211242F93E5
:1030E0003F934F935F936F937F938F939F93AF9390
:1030F000BF93EF93FF938091E10082FF09C080911D
:10310000E20082FF05C08091E1008B7F8093E100A7
:103110008091DA0080FF24C08091D80080FF20C019
:103120008091DA008E7F8093DA008091D90080FF51
:103130009BC080E189BD82E189BD09B400FEFDCF5D
:1031400081E0809303028091DE01811109C00E9419
:10315000EC010E94B7028091E20084608093E2005B
:103160008091E10080FF17C08091E20080FF13C0D2
:103170008091E2008E7F8093E2008091E200806186
:103180008093E2008091D80080628093D80019BCBF
:1031900085E0809303028091E10084FF29C0809143
:1031A000E20084FF25C080E189BD82E189BD89B547
:1031B000982F917080FFFBCF8091D8008F7D8093F6
:1031C000D8008091E1008F7E8093E1008091E20041
:1031D0008F7E8093E2008091E20081608093E20024
:1031E00080910402882309F445C084E0809303029F
:1031F0008091E10083FF27C08091E20083FF23C01C
:103200008091E100877F8093E10082E08093030258
:10321000109204028091E1008E7F8093E100809102
:10322000E2008E7F8093E2008091E20080618093D3
:10323000E20042E060E080E00E9485028091F000C0
:1032400088608093F000FF91EF91BF91AF919F91C3
:103250008F917F916F915F914F913F912F910F903F
:103260000FBE0F901F90189519BC10920302109278
:10327000DE0176CF8091E30087FD93E09093030217
:10328000B7CF78941F921FB61F9211248F939F93EC
:10329000AF93BF938091D5019091D601A091D701B2
:1032A000B091D8010196A11DB11D8093D5019093D5
:1032B000D601A093D701B093D801BF91AF919F9150
:1032C0008F911F901FBE1F9018951F921FB61F92BF
:1032D00011248F939F93AF93BF938091D401811159
:1032E00013C08091D5019091D601A091D701B091E2
:1032F000D8014196A11DB11D8093D5019093D601AF
:10330000A093D701B093D801BF91AF919F918F91B6
:103310001F901FBE1F901895CDB7DEB7AA970FB6A6
:10332000F894DEBF0FBECDBF84B7877F84BF0FB6D2
:10333000F894A89580916000886180936000109255
:1033400060000FBE80E890E00FB6F89480936100B3
:10335000909361000FBE85B7806885BF85B7806890
:1033600085BF88E095E090935301809352010E94BD
:10337000EC010E94B7028091E20084608093E20039
:103380007894809103028823A1F01091E9001F70C6
:103390009091EC00892F817090FD80E8182B10929D
:1033A000E9008091E80083FD0E94460D1F70109394
:1033B000E90082E084BD93E095BD9AEF97BD8093CC
:1033C0006E000E94ED0B811102C00E942E0B84E35F
:1033D0000E940A0585E30E940A0584E90E940A0505
:1033E00086E60E940A0587E90E940A0586EC0E948B
:1033F0000A051092B9011092BF011092BA01109201
:10340000C00190E080E00E949F1D893E9E4F21F404
:103410000E94ED0B811102C00E94C70C82E090E077
:103420000E94971D8093BC010E94060C9093DA01C4
:103430008093D9010E94140C4FEF86E791E0415030
:1034400080409040E1F700C000000E94140C809181
:10345000BF0180FF08C06FEF7FEF90E080E00E9427
:10346000C31D0E945B0983E090E00E94971D0E94AB
:10347000520880E091E09093D1018093D00158E10F
:10348000E52EF12C60E4662E70E1772EE2E1BE2E8F
:10349000F0E1AF2E80910302853049F48091030260
:1034A000853009F452C10E94310D0E94C0030E9470
:1034B000140C882359F08FB7F8944091D50150919E
:1034C000D6016091D7017091D8018FBF9091BF0153
:1034D0008091BD01981761F0292F282780E011E025
:1034E000322F312309F07AC18F5F110F8430C1F779
:1034F0009091C0018091BE01891709F478C1282FED
:10350000292780E011E0312F322309F46BC1CC244C
:10351000C394D12C21E089A32AA3912381E009F44B
:1035200080E08BA30E9488038160782F9DA38CA3E9
:1035300049A15AA16BA18DA10E949617F601E354EF
:10354000FE4F80811827108386E0E8ECF1E0DE0171
:10355000119601900D928A95E1F7D090CA01C09022
:10356000CB011091CC010091CD011092CA011092B3
:10357000CB011092CC011092CD018D2D8C2909F434
:1035800048C08091C6019091C7010E9479039C01B7
:103590009091C201992309F490C223333105C8F1F7
:1035A0009F3F19F09F5F9093C201DD2059F00E9468
:1035B0008E049FEF1D140CF491E0899F802D11243F
:1035C0008093CA01CC2059F00E948E049FEF1C14F6
:1035D0000CF491E0899F802D11248093CB013091D0
:1035E000CA013323B1F02091CB01222391F045EBA6
:1035F0003403C0011124992309F40AC19093CA012C
:1036000045EB240390011124332309F405C13093C1
:10361000CB01812F802B09F448C08091C401909187
:10362000C5010E9479039C019091C101992309F47D
:103630003FC225363105C8F19F3F19F09F5F909337
:10364000C101112359F00E946C049FEF11160CF474
:1036500091E0899F802D11248093CC01002359F0A3
:103660000E946C049FEF10160CF491E0899F802D4E
:1036700011248093CD013091CC013323B1F02091FE
:10368000CD01222391F045EB3403C001112499238D
:1036900009F4C6C09093CC0145EB2403900111249A
:1036A000332309F4C1C03093CD018091CA019091B8
:1036B000CB01892B9091CC01892B9091CD01892B45
:1036C00011F00E94CC0386E0FE013196A8ECB1E037
:1036D00001900D928A95E1F70E94C0039091BB0181
:1036E000891721F00E94C0038093BB0180910302DF
:1036F000843009F0CFCE83E08093E9008091E80028
:1037000082FFC8CE8091E80090E085FF0CC00E9447
:103710000B0230E2C32ED12C8E010F5F1F4F882386
:1037200009F490C091E08091E8008B778093E800E5
:10373000992309F4AFCEE981E150E33108F0EAC002
:10374000F0E0E45FF14E0C94761D8091030284302A
:1037500009F11092D4010FB6F894A895E092600098
:103760000FBE6092600083B7817F846083BF83B7A0
:10377000816083BF7894889583B78E7F83BF0FB6AF
:10378000F894A89580916000886180936000109201
:1037900060000FBE80910202882309F47FCE0E9450
:1037A000140C8091C0019091BF01892B09F476CE51
:1037B00079BCB9BC09B400FEFDCF8091D8008F7DE3
:1037C0008093D8008091E00082608093E000809137
:1037D000E00081FDFCCF0E94310D60CE20E0D12CB5
:1037E000C12C99CE8F5F110F843009F08CCE8FEFF2
:1037F0008EA38FA318A60E9488038160782F9AA7B2
:1038000089A74EA15FA168A58AA50E9496179CCEA4
:1038100081E08093CA01F4CE81E08093CB01F9CEA0
:1038200081E08093CC0138CF81E08093CD013DCF02
:103830008091F100F80181938F01F1E0CF1AD10856
:1038400009F470CF8091E80085FDF2CF8091E80007
:103850008B778093E8000E940B02882399F362CF54
:103860001A8289E08B8321C08A81823009F417C1D2
:103870008330A9F0813009F04DC02FB7F8946091E2
:10388000D5017091D6018091D7019091D8012FBFB9
:103890000E947C1D6B837C838D839E8306C08091F8
:1038A000BF018B838091C0018C838091030284309F
:1038B00009F0F0CD1091E9001F709091EC00892F74
:1038C000817090FD80E8182B82E08093E900809160
:1038D000E80080FF0DC050E040E060E270E0CE0103
:1038E00001960E943C028091E8008E778093E80068
:1038F0001F701093E900CECD8A81823059F46B811C
:103900007C818D819E810E947C1D86E290E00E94D8
:10391000A51DCBCF8FEF8983C8CF4C816B818A8166
:103920000E94570B9827892798279E838D83BDCFA8
:103930000D811E81102701271027CA8020E1C29E19
:10394000600111248B8148E0849FC0011124C80EBE
:10395000D91E8C8190E0880F991FC80ED91E612F47
:10396000C60187960E94A51D602FC6018896CFCFFD
:103970000E94C50A9ACFAA8298CF83E08A8389E9F8
:1039800071CF0A811B81102701271027CE010196D4
:103990006C018C80FC01E80DF11D4F01C8018959B3
:1039A0009F4F8C149D0409F480CF0939F3E01F0761
:1039B00050F40E94971DF60184830F5F1F4FFFEFA5
:1039C000CF1ADF0AEBCFF6011482F7CF0A811B81F1
:1039D000102701271027CE0101964C01CC80C00E84
:1039E000D12ED11CC80189599F4FC016D10609F4A8
:1039F0005CCF0939E3E01E0720F4F40164810E94E2
:103A0000A51DFFEF8F1A9F0A0F5F1F4FEBCF0E947C
:103A1000B50A4BCF84E08A8348CF0A811B811027E7
:103A200001271027CE0101966C018C80FC01E80D66
:103A3000F11D4F01C8018796C814D90409F435CF88
:103A40000034110550F40E94971DF60184830F5F26
:103A50001F4FFFEFCF1ADF0AEDCFF6011482F7CF29
:103A60000A811B81102701271027CE0101964C01E6
:103A7000CC80C00ED12ED11CC8018796C016D106AD
:103A800009F413CF0034110520F4F40164810E947D
:103A9000A51DFFEF8F1A9F0A0F5F1F4FEDCF86E224
:103AA00090E00E94971D1B821C821D828E83FDCE9A
:103AB0002D32314008F0C2CDF8CD2D32314008F022
:103AC00071CDA7CD97FB072E16F4009407D077FD94
:103AD00009D00E94831D07FC05D03EF49095819586
:103AE0009F4F0895709561957F4F0895EE0FFF1FCA
:103AF0000590F491E02D0994692796276927782786
:103B0000872778270895AA1BBB1B51E107C0AA1F6E
:103B1000BB1FA617B70710F0A61BB70B881F991F6E
:103B20005A95A9F780959095BC01CD010895F99912
:103B3000FECF92BD81BDF89A992780B50895A8E17E
:103B4000B0E042E050E00C94CB1D262FF999FECF57
:103B500092BD81BDF89A019700B4021639F01FBAE0
:103B600020BD0FB6F894FA9AF99A0FBE08950396FD
:103B7000272F0E94A61D0E94A51D252F0E94A61D6D
:103B8000242F0C94A61D0196272F0E94A61D0C948D
:103B9000A51DDC01CB01FC01F999FECF06C0F2BDE9
:103BA000E1BDF89A319600B40D9241505040B8F7FB
:103BB0000895FB01DC0104C08D910190801921F46E
:103BC00041505040C8F7881B990B0895F894FFCFD7
:103BD000D80BD80BE10BE10BE30BE10BE10BE10B95
:103BE000D80BD80BE80BE10BE10BE80B2B0E530EB7
:103BF000A60E530EA60E860EBE0EA60EBB0FC80F47
:103C00001313131386138613E413FE134A134A1374
:103C10000914761487148714301C341C7C1C8D1CEA
:103C2000981CB81C8A1C8A1C8A1C8A1C8A1CBB1CF7
:0E3C3000BD1CC11CE61C071D0A1D0D1D301D0C
:103C3E0076031B09FA08F608F20801818283E20076
:103C4E00E900EA00B500B600B700CD008301CC0054
:103C5E008A019201940121022302240225022602E6
:103C6E0027022A02B300B4006F0070003435946648
:103C7E0097C64022B684016201AC00C602DF02FF85
:023C8E00020032
:00000001FF
