:100000000C9444010C948B010C948B010C948B0187
:100010000C948B010C948B010C948B010C948B0130
:100020000C948B010C948B010C94CD230C94A12483
:100030000C947A1A0C948B010C948B010C948B0108
:100040000C948B010C948B010C948B010C948B0100
:100050000C948B010C94D11A0C948B010C948B0191
:100060000C948B010C948B010C948B010C948B01E0
:100070000C948B010C948B010C948B010C948B01D0
:100080000C948B010C948B010C948B010C948B01C0
:100090000C948B010C948B010C948B010C948B01B0
:1000A0000C948B010C948B010C948B012F5C315CB4
:1000B000335C345C365C385C3A5C3B5C0A0353006E
:1000C00053004D005000000012033200350036008E
:1000D0006B006C00610062007300000004030904FF
:1000E00009029F00040100A0FA09040000010301B5
:1000F00001000921110100012240000705810308C8
:10010000000A090401000103000000092111010097
:100110000122B6000705820320000A080B02020133
:10012000010000090402000001010000092401008F
:100130000109000103090403000201030000072470
:10014000010001410006240201010006240202020E
:100150000009240301030102010009240302040130
:100160000101000905040240000500000525010108
:100170000109058302400005000005250101031265
:10018000010002000000086A25454201000102004A
:100190000105010902A10185020901A10005091952
:1001A000012908150025019508750181020501093D
:1001B0003009311581257F950275088106093815AA
:1001C00081257F950175088106050C0A3802158185
:1001D000257F950175088106C0C005010980A10130
:1001E000850319012AB700150126B700950175107E
:1001F0008100C0050C0901A101850419012AA00292
:10020000150126A002950175108100C0050109069F
:10021000A1018505050719E029E7150025019508C5
:10022000750181020507190029EF1500250195F0D8
:1002300075018102050819012905950575019102CD
:10024000950175039101C005010906A10105071972
:10025000E029E715002501950875018102950175D2
:100260000881010507190029FF150026FF009506E2
:100270007508810005081901290595057501910288
:10028000950175039101C00011241FBECFEFDAE084
:10029000DEBFCDBF04B603FE27C08091ED03909171
:1002A000EE03A091EF03B091F0038730904BA7408D
:1002B000B04BD1F41092ED031092EE031092EF03C5
:1002C0001092F00314BE84B7877F84BF0FB6F894F2
:1002D000A895809160008861809360001092600012
:1002E0000FBEE0E0F8E3099511E0A0E0B1E0E4EF33
:1002F000FDE402C005900D92A839B107D9F723E0BB
:10030000A8E9B1E001C01D92AD3EB207E1F70E943D
:100310007B110C94D0260C94000081E0089581E0BC
:1003200008950C948F0108950C9493011F93CF931B
:10033000DF9300D000D00F92CDB7DEB749835A8348
:100340006B8330919A0189819A8131111DC0662396
:10035000B9F02223A9F00E94CC07182F682F8981B9
:100360009A810E94790769817A81812F0F900F907D
:100370000F900F900F90DF91CF911F910C94060E6C
:100380000E94A507182FEFCF0E94CC0769817A81C0
:10039000EDCFFC01262F40815181628173818481E0
:1003A0000C94960181E00895CF93DF93EC0160E017
:1003B0000E94C901BE01DF91CF910C9494010E946B
:1003C0002F100E9456020C9454100C94571008954C
:1003D0000E9422060E94E7012FEF84E39CE0215057
:1003E00080409040E1F700C000000C94F51A0F9394
:1003F0001F93CF93DF938C0161E00E94C901EC0150
:10040000B8010E9491018823D9F1B801CE010E9460
:10041000B6118823A9F1B801CE010E945F17882385
:1004200079F1B801CE010E94B117882349F1B801D2
:10043000CE010E94DB18882319F1F80182818823FC
:1004400061F0CB35FDE5DF0721F170F4C115ECE576
:10045000DE07A1F0CF3DDC45C9F0C801DF91CF91A7
:100460001F910F910C948D01CC358DE5D807A1F02B
:10047000CD35DD4591F70E94A90BEFCF0E94E80131
:1004800080E0DF91CF911F910F9108950E94200D80
:10049000F7CF0E94B20BE1CF0E94B50BDECF0895DB
:1004A0000C944F0281E008950C9452020895CF936A
:1004B000C82F0E9450028C2FCF910C945402CF93DE
:1004C000DF93CDB7DEB72B970FB6F894DEBF0FBE24
:1004D000CDBF4F83588769877A878B8761110E94C8
:1004E000D80B1E821D8285E0FE013796DE01119633
:1004F00001900D928A95E1F78C819D81892B89F479
:1005000049815A816B817C818D819E810E94D80AAC
:100510002B960FB6F894DEBF0FBECDBFDF91CF9103
:10052000089589819A8189238F3F51F3CE010196E5
:100530000E94D2018111E4CFEBCFFC018081918137
:100540000C940E08CF93C82F882309F48BC08238EF
:10055000C1F40E940A1981FD85C089E30E94720BD3
:100560000E94080C2FEF81EE94E0215080409040D3
:10057000E1F700C0000089E30E94790BCF910C9451
:10058000080C8338A1F40E940A1980FD6BC083E532
:100590000E94720B0E94080C2FEF81EE94E0215014
:1005A00080409040E1F700C0000083E5E5CF84384B
:1005B000A1F40E940A1982FD55C087E40E94720BC3
:1005C0000E94080C2FEF81EE94E021508040904073
:1005D000E1F700C0000087E4CFCF8CEF8C0F813AA9
:1005E00090F46C2F80910001909101010E947E197E
:1005F000882329F08C2F0E94790B0E94080C8C2FE5
:100600000E94720BBBCF80E28C0F883048F4C77019
:1006100081E001C0880FCA95EAF70E94BB0BAECFFC
:10062000EBE5EC0FE33040F4F0E0E15BFE4F80815E
:1006300090E0CF910C943E19E8E5EC0FE73150F4CF
:10064000F0E0EE0FFF1FEF5DFE4F80819181CF91B3
:100650000C945419CD3E30F08C2F0E94EB14CF91A6
:100660000C94BE15CF910895882309F452C08238A6
:1006700071F40E940A1981FF4CC089E30E94720B39
:100680000E94080C89E30E94790B0C94080C8338B3
:1006900059F40E940A1980FF3CC083E50E94720B46
:1006A0000E94080C83E5EFCF843859F40E940A19A0
:1006B00082FF2FC087E40E94720B0E94080C87E41F
:1006C000E2CF9CEF980F913AF0F290E2980F9830B9
:1006D00050F4877091E001C0990F8A95EAF7892F4D
:1006E0000E94C10BD2CF9BE5980F933020F490E08D
:1006F00080E00C943E1998E5980F973120F490E033
:1007000080E00C9454198D3E20F00E9445150C9405
:10071000BE1508951F93CF93DF93182FEB010E940E
:10072000A202209731F4812FDF91CF911F910C9479
:1007300034038FE99FE00197F1F700C00000219793
:10074000F0CF70E060E0893311F460E570E00C9464
:100750008A03882321F00E94BB0B0C94080C089597
:10076000882321F00E94C10B0C94080C0895BF92BD
:10077000CF92DF92EF92FF920F931F93CF93DF936D
:100780006C01D62FC72FFC011281058102950F70D5
:100790000E94900BE82E8823A1F0E12E112389F00E
:1007A0008C2F807F803429F080E28D0FE12C8830FF
:1007B00040F082E00E94590C0E94900B91E0E82EDC
:1007C000E926BC2EB2949FE0B922EB2DF0E0EE5268
:1007D000F94D0C947B260C2F0F70C07F11F0029501
:1007E000007F1123A9F0002359F080E28D0F88309B
:1007F00010F0D11109C0802F0E94BB0B0E94080C81
:100800008D2F0E94A20214C0802F0E94CB0BF6CF26
:100810008D2F0E943403002359F080E28D0F883021
:1008200010F0D1112CC0802F0E94C10B0E94080C27
:100830002B2D2850330B2430310520F40E940A1947
:100840000E945702EE2009F49EC10E948C0B80FD8D
:100850009AC1F60112820E94860B0E94DD06C60133
:100860000E94E4050E94860BDF91CF911F910F91AA
:10087000FF90EF90DF90CF90BF900C94FE06802FFA
:100880000E94D10BD3CFFC2FFF70FF2EC07FC03250
:1008900019F0F29480EFF822DD2369F0D13049F1AC
:1008A000112391F1002351F1F601858180FFA8CF3A
:1008B0008F70858323C0112381F0011106C00E942F
:1008C000EB0B8F290E94A903B3CF0130C1F70E941F
:1008D000EB0B8F290E94F10BABCF011106C00E94D8
:1008E000FE0B8F2D0E94B003A3CF013009F4A0CFDF
:1008F000F6CF112329F0063008F09ACF8F2DE2CFE2
:10090000053008F095CFEDCF002359F3D93349F4E2
:10091000FFEF27EE33E0F15020403040E1F700C018
:1009200000008D2F0E94340383CF8C2F86958695EF
:10093000837069F0813009F07BCF8D2F9C2F9370ED
:10094000111102C090E080E00E94541971CF8D2FE8
:100950009C2F9370111102C090E080E00E943E191C
:1009600067CF8D2F112329F00E94EB140E94BE1532
:100970005FCF0E944515FACF8C2F837009F041C0DC
:10098000111156CF4D2F429546954770440F440F95
:100990000D2F0F7010E030E020E0042E04C0000F97
:1009A000111F221F331F0A94D2F760E070E0CB01C1
:1009B000D4FF0FC06FE070E080E090E004C0660FED
:1009C000771F881F991F4A95D2F76095709580957B
:1009D0009095C695C695C370602B712B822B932B77
:1009E000C23049F058F4C13019F00E948F0620CF70
:1009F0000E947D061DCF0E94A1061ACF0E947B0691
:100A000017CF8695112311F08C2F8170882309F45C
:100A10000FCF4D2F429546954770440F440F0D2F31
:100A20000F7010E030E020E0042E04C0000F111F12
:100A3000221F331F0A94D2F760E070E0CB01D4FF8D
:100A40000FC06FE070E080E090E004C0660F771F99
:100A5000881F991F4A95D2F760957095809590955B
:100A6000C695C695C370602B712B822B932BC23019
:100A700049F058F4C13019F00E945407D9CE0E94B1
:100A80004207D6CE0E946607D3CE0E94B706D0CECC
:100A9000CF70112329F08C2F0E94DD068D2F12CFED
:100AA0008D2F0E94B0038C2F0E94FE06C1CED23F34
:100AB00089F160F4D03FC9F0D13F29F1112309F445
:100AC00042C001119DCE8C2F8F7121C0D33F39F1CF
:100AD000D43FA1F7112369F1CF718C2F0E94DD065D
:100AE00063E08C2F0E943E0CA3CE112341F0053011
:100AF00008F09ECE8C2F8F710E94210799CE063070
:100B000008F096CEF7CF8C2F8F71112369F20E94D7
:100B1000DD068ECE8C2F8F711123C9F3C5CF112323
:100B200029F08C2F8F710E94C80682CE0E94C306C6
:100B30007FCE81E00E94590C023008F479CE82E029
:100B40000E94590C75CE002359F0D93309F0E9CE33
:100B50008FEF97EEE3E081509040E040E1F7DFCE89
:100B60008C2F8F71A1CF4C2F4F706D2FC6010E941B
:100B7000020E0E943C085CCE4C2F4F706D2FC601B8
:100B80000E94050E55CEDF91CF911F910F91FF90DE
:100B9000EF90DF90CF90BF9008950F931F93CF9366
:100BA000DF93EC01688179818A810E9418088C01A9
:100BB0000E9478070E947A06B801CE01DF91CF919A
:100BC0001F910F910C94B703CF93DF93EC018B81AE
:100BD0009C81892B29F08881998189238F3F59F441
:100BE000DF91CF910895CE010E94CD05CE01DF9116
:100BF000CF910C94D401CE010E94F7018111F3CF63
:100C00000E94900B882361F38A81882349F382E054
:100C1000DF91CF910C94590C90E080E00E943E1936
:100C200090E080E00E9454190E94D80B0E94E80BCB
:100C30000E94080C0E94E5160C94BE150E94800BC1
:100C40000C940C060E94C80B0C941E06E92FE2952A
:100C5000EF70E250EE3070F4F0E0EE51F94D0C948C
:100C60007B26803F19F020F4883E20F481E008952F
:100C7000843FE1F380E00895883EC0F3813FD1F7DF
:100C8000F5CF93FB882780F90895FC01808191813D
:100C90000E940E080C942606CF93DF9300D000D05C
:100CA0000F92CDB7DEB70F900F900F900F900F906F
:100CB000DF91CF910895CF93DF9300D000D000D083
:100CC000CDB7DEB726960FB6F894DEBF0FBECDBF08
:100CD000DF91CF91089508950C946B060E946C06E5
:100CE0006093A4017093A5018093A6019093A7013E
:100CF0000C940C0608950C946E060F931F930091AC
:100D0000A4011091A5012091A6013091A701602BAB
:100D1000712B822B932B1F910F910C946E060F93C6
:100D20001F930091A4011091A5012091A60130917B
:100D3000A70160237123822393231F910F910C94A9
:100D40006E060F931F930091A4011091A5012091AD
:100D5000A6013091A70160277127822793271F9151
:100D60000F910C946E060C946B060C94B3060E94C3
:100D7000B5066093A0017093A1018093A2019093A6
:100D8000A3010C940C0660E070E0CB010C94B70654
:100D90000F931F9341E050E060E070E08A019B01F7
:100DA00004C0000F111F221F331F8A95D2F7C901FB
:100DB000B8011F910F910C94B7060F931F9341E058
:100DC00050E060E070E004C0440F551F661F771FBD
:100DD0008A95D2F78091A0019091A101A091A201E2
:100DE000B091A3018A019B01082B192B2A2B3B2BC5
:100DF000C901B8011F910F910C94B7060F931F936F
:100E000041E050E060E070E004C0440F551F661FF1
:100E1000771F8A95D2F7CB01BA01609570958095BE
:100E200090950091A0011091A1012091A201309113
:100E3000A30160237123822393231F910F910C94AC
:100E4000B7060F931F9341E050E060E070E004C0EC
:100E5000440F551F661F771F8A95D2F78091A00116
:100E60009091A101A091A201B091A3018A019B01DF
:100E7000082719272A273B27C901B8011F910F917D
:100E80000C94B7060F931F930091A0011091A1013C
:100E90002091A2013091A301602B712B822B932B07
:100EA0001F910F910C94B7060F931F930091A0010F
:100EB0001091A1012091A2013091A301602371231F
:100EC000822393231F910F910C94B7060F931F93C6
:100ED0000091A0011091A1012091A2013091A301E4
:100EE00060277127822793271F910F910C94B706D3
:100EF0000895990F990F890F982F977041E001C0BD
:100F0000440F9A95EAF786958695869595E0899F90
:100F1000F0011124E556FE4F30E020E070E05191E1
:100F2000DF011197CB01022E02C0969587950A9496
:100F3000E2F7817081958527842385278C932F5F25
:100F40003F4F2530310559F70895990F990F890FB3
:100F5000982F977086958695869525E0829FF0015B
:100F60001124E556FE4F50E040E080E0219130E052
:100F7000092E02C0369527950A94E2F7217033278F
:100F8000042E01C0220F0A94EAF7822B4F5F5F4FB5
:100F90004530510559F70895BF92CF92DF92EF92F5
:100FA000FF920F931F93CF93DF938C01C090A0010A
:100FB000D090A101E090A201F090A3018091A40142
:100FC0009091A501A091A601B091A701C82AD92AA4
:100FD000EA2AFB2ACFE1D0E0BC2ED701C6010C2EB5
:100FE00004C0B695A795979587950A94D2F780FD8A
:100FF0000EC0219788F7B12C8B2DDF91CF911F91D7
:101000000F91FF90EF90DF90CF90BF900895B801BF
:101010008C2F0E94340F019761F3EECFCF93DF93B3
:10102000EC010E94CC07BE01DF91CF910C94340FEC
:101030001F93CF93DF93EB0190919A01992331F0A5
:10104000CB01DF91CF911F910C940E08882379F08A
:10105000CB010E94CC07182F682FCE010E94790780
:10106000BE01812FDF91CF911F910C94340FCB01E2
:101070000E94A507182FF4CFEF92FF920F931F93B2
:10108000CF93DF938C01892B81F0F12CEE24E39434
:10109000E8012196F8018491843770F4843008F0D7
:1010A0005FC08130B1F08230A1F1DF91CF911F910B
:1010B0000F91FF90EF900895853709F44CC008F424
:1010C0003DC09CE7980F903780F78F770E943403DC
:1010D00049C00E5F1F4FFE01849190E2980F983037
:1010E00060F48770FE2D01C0FF0F8A95EAF78F2FFD
:1010F0000E94DB0B0E94080C02C00E94A2028F2DEE
:10110000815030F2EFE9FFE03197F1F700C00000C5
:10111000F7CF0E5F1F4FFE01849190E2980F983039
:1011200050F48770FE2D01C0FF0F8A95EAF78F2FCC
:101130000E94E10BDFCF0E943403E1CF0E5F1F4F0F
:10114000FE01C491C150D8F28FE99FE00197F1F7F9
:1011500000C00000F7CF0E5F1F4FFE01F490CFCF0D
:101160000E94A2028E01CBCF1F93CF93DF93C09139
:10117000A80116E08091A9018C1304C0DF91CF91E2
:101180001F910895D0E01C9FF0011D9FF00D1124C8
:10119000E655FE4F40815181628173818481958142
:1011A0000E945B062196C770E5CF4091DA0150910D
:1011B000DB016091DC017091DD018091DE01909195
:1011C000DF010C945B061F93CF93DF938091DF01C7
:1011D000807FA9F48091DC01882389F08091A801A7
:1011E000C091A9016091DA017091DB01A091DD014C
:1011F000B091DE01D62FD72316E0C81304C0DF91CB
:10120000CF911F91089590E0109711F0DF3F19F4EE
:1012100001968770F2CF189F9001199F300D11240D
:10122000F901E655FE4F41814713F2CF4081461345
:10123000EFCF42814111ECCF438154814A1B5B0BBC
:10124000483C510528F78091DF018F7080618093C1
:10125000DF01F901E155FE4F80818F70806180834D
:101260008AED91E00E94E405DF91CF911F910C94EB
:10127000B408AF92BF92CF92DF92EF92FF920F939A
:101280001F93CF93DF93CDB7DEB761970FB6F89476
:10129000DEBF0FBECDBF8C0185E0F801DE011D96DB
:1012A00001900D928A95E1F7F801E2808AEDC82E4F
:1012B00081E0D82E6091DD017091DE01611571052C
:1012C00009F45AC19091DA012091DB01892F822320
:1012D0008F3F09F451C140815181A380B480F090C7
:1012E000DC01F501E61BF70BFF2009F4F6C0809145
:1012F000DF01382F307FE83CF10508F0AFC0311135
:1013000079C0FE2C251323C0941321C0E1101FC007
:101310008F7080618093DF010E94D508C6010E9412
:10132000E4058091DF01F80185838F2D61960FB66A
:10133000F894DEBF0FBECDBFDF91CF911F910F910B
:10134000FF90EF90DF90CF90BF90AF900895AB28C3
:1013500029F0842F85238F3F09F027C180E0F82FE3
:10136000F170DF2E80FF3CC08091A8012091A9017F
:1013700036E0821315C04D875E878D859E850E945D
:101380000E08292F22952F702230F0F0243018F506
:101390009F70F1F0F8019581907FD1F4D12C1EC09F
:1013A00090E0389FF001399FF00D1124E655FE4F73
:1013B0006181651306C06081641303C06281E61217
:1013C0000FC001968770D5CF9F7011F0882331F33D
:1013D000805E883018F3C8010E94E405FD2CA5CF7B
:1013E000EE2009F4A2CF8091DF0181608093DF01BC
:1013F000F12C9BCF251306C0941304C0F801EE20F6
:1014000009F487C0C8010E944506882319F1EE201F
:1014100009F18091DF01803270F02091DA01309182
:10142000DB0138872F831986BB86AA868C87CE017D
:1014300007960E94E40586E0F801AAEDB1E001906C
:101440000D928A95E1F70E94E3080E94D508FF24D7
:10145000F3946BCFC8010E94E405F9CF311113C09A
:101460007A2DB98AA88A6E2D89890E944C068AED48
:1014700091E00E94E40586E0F60111928A95E9F771
:101480000E94D508B5CF25130FC094130DC0E110ED
:101490000BC0F8018583C8010E94E40586E0F601CF
:1014A00011928A95E9F741CFC8010E944506882329
:1014B00089F2EE2079F28091DF01803208F4BBCF0F
:1014C0002091DA013091DB013A8329831B82BD82AE
:1014D000AC828E83CE010196ACCFE83CF10508F0DA
:1014E0003EC0FE2CEE2009F4B5CF25132AC094137C
:1014F00028C08091DF0180FD1BC0982F907FC1F034
:10150000F8018583903F31F0982F907F905F8F7026
:10151000892B8583C8010E94E40586E0F801AAEDC5
:10152000B1E001900D928A95E1F70E94D508FDCEB9
:1015300086E0F801AAEDB1E001900D928A95E1F7FD
:10154000F4CEC8010E944506811175CF8091DF015C
:1015500081608093DF01C8010E94E405E6CE7A2D08
:10156000B98AA88A6E2D89890E944C0686E0F60108
:1015700011928A95E9F7D9CFEE2009F46BCFC80113
:101580000E944506F82E882309F464CF86E0F8010E
:10159000AAEDB1E001900D928A95E1F78AED91E014
:1015A0000E949D020E94E308C0CF81E08E25D7CE25
:1015B0001F93CF93DF93CDB7DEB72C970FB6F89478
:1015C000DEBF0FBECDBF4F83588769877A878B8771
:1015D0009C87CE0107960E943909882369F08A8585
:1015E0009B85892B39F04F815885842F85238F3F28
:1015F00009F071C016E05FC086E0FE013796DE019B
:10160000119601900D928A95E1F78A859B85892B29
:1016100089F38F81988589238F3F61F32091A901F8
:1016200030E0C9010196877099274091A8014817B9
:10163000190671F40E9422061092A9011092A801C5
:1016400086E0EAEDF1E0DF011D928A95E9F7D2CF5D
:1016500096E0929FD001939FB00D1124A655BE4FE6
:10166000FE01319601900D929A95E1F78093A901C0
:101670000E94B408BFCF819FC001112486559E4FA0
:101680000E9439098823E9F0E091A8011E9FF0012A
:101690001124E655FE4F408151816281738184811E
:1016A00095810E945B068091A80190E00196877069
:1016B00099278093A8018091A8019091A90189138D
:1016C000DACF2C960FB6F894DEBF0FBECDBFDF91F8
:1016D000CF911F91089569857A858B859C850E949D
:1016E0005B0688CF682F80910001909101010C94D6
:1016F000FE19682F80910001909101010C94091A44
:1017000080910001909101010C94141A8091E001E4
:1017100085958595859508958091E0018770089558
:101720009091E001977081E009F480E00895909134
:10173000E60292FB222720F9281751F080FB92F94C
:101740009093E6028091E5029091E6020C949C0C45
:1017500008958091E60282FB882780F991E089272D
:101760000C94970B81E00C94970B80E00C94970BF2
:1017700080910402089590910402892B80930402C1
:1017800008958095909104029823909304020895FF
:1017900010920402089590910302892B8093030212
:1017A00008958095909103029823909303020895E1
:1017B00010920302089590910202892B80930202F5
:1017C00008958095909102029823909302020895C3
:1017D0001092020208958091E101089508950C94F9
:1017E000EE0B9091E60292FD08C09091E1019817EE
:1017F00021F08093E1010C94EF0B08958091E101B9
:10180000882329F01092E10180E00C94EF0B0895F9
:10181000E0910001F0910101809104028083E09148
:101820000001F0910101808190910302892B808356
:10183000E0910001F0910101808190910202892BD9
:1018400080839091E101992381F0E0910001F09172
:1018500001018081892B8083809100019091010199
:101860000E946A1981110E94FE0B809100019091E3
:1018700001010C94161908950C943B0C9091E6020A
:1018800092FD10C098E0899F90011124622B609313
:10189000E0010E94DD068091E001859585958595A2
:1018A0000C943C0C0C94DD061092E00180E00C944A
:1018B0003C0C9091E001809589238093E001282FD2
:1018C000277039F4282F082E000C330B92171306BB
:1018D00021F49091E60292FF07C085958595859544
:1018E0000E94FE060C94540C08956FEF7FEF90E079
:1018F00080E00C94BA2690E080E00E94962621E0D9
:10190000893E9E4F09F020E0822F089582E090E00A
:101910000C948E2683E090E00C948E26CF9384E086
:1019200090E00E948E26C82F82E290E00E948E26D0
:10193000982F8C2FCF910895CF93C92F682F84E0D3
:1019400090E00E949C266C2F82E290E0CF910C9454
:101950009C26AB01BC018FE090E00C94AE26AB015D
:10196000BC0183E190E00C94AE2660E070E0CB0116
:101970000C94AF0C60E070E0CB010E94A90C0C94B9
:10198000B50C69EE7EEF90E080E00E94BA2660E040
:1019900082E090E00E949C2660E083E090E00E945C
:1019A0009C261092A4011092A5011092A6011092FB
:1019B000A70160E084E090E00E949C2660E082E263
:1019C00090E00E949C2660E085E090E00E949C26CA
:1019D00060E086E090E00E949C266FEF87E090E058
:1019E0000E949C2640E050E0BA0188E090E00E940E
:1019F000AE2660E08DE090E00E949C2640E050E042
:101A0000BA0188E190E00E94AE2660E087E190E0B4
:101A10000E949C2640E050E0BA018CE190E00E94D8
:101A2000AE2670E060E080E290E00E94BA2640E0DE
:101A300050E0BA0188E190E00E94AE260C94BA0C06
:101A40000C94C10C682F8EE090E00C949C260E94B0
:101A5000B61A60930C0270930D0280930E0290935D
:101A60000F02609308027093090280930A02909318
:101A70000B02089585B7806885BF85B7806885BFEC
:101A80000895089508950C94410D08950C94450D02
:101A90000E943A0D82E190E10E94191B0E94420DC2
:101AA0000C94430D81E008950C94520D089508950F
:101AB0000E94560D0C94570D0E94A11A0E94FC1012
:101AC0000C94460DAF92BF92CF92DF92EF92FF92AD
:101AD0000F931F93CF93DF93CDB7DEB72A970FB63F
:101AE000F894DEBF0FBECDBF0E940C1181110E9481
:101AF000270D86E0A82E82E0B82E10E000E0C02E70
:101B0000802F0E945910E82EF501F1905F01F81620
:101B100009F453C08091100281FD0E945F108F2D47
:101B20008E25D12CFF24F394982F9F2109F440C0D7
:101B30000E94540D882399F0DE82CF82EF2081E04D
:101B400009F480E088870E94AA1A8160782F9A871A
:101B500089874E815F8168858A850E945F02F801CE
:101B6000EA5FFD4F8081F826F0820E94D9150E941D
:101B70001D140E940A1990910502891791F10E9483
:101B80000A19809305022A960FB6F894DEBF0FBE9D
:101B9000CDBFDF91CF911F910F91FF90EF90DF901C
:101BA000CF90BF90AF900C94570201E010E0A7CF08
:101BB000D394FF0CF4E0DF12B7CF01301105A9F781
:101BC0008FEF89838A831B820E94AA1A8160782FF3
:101BD0009D838C8349815A816B818D810E945F0234
:101BE000C4CF2A960FB6F894DEBF0FBECDBFDF91EB
:101BF000CF911F910F91FF90EF90DF90CF90BF900A
:101C0000AF90089590E080E008950895E82FF0E007
:101C1000EE0FFF1FE70FF11DEE0FFF1FEE0FFF1F6F
:101C2000E60FF11DEE0FFF1FE455FF4F85919491D4
:101C30000895FC01EE0FFF1FE454FF4F859194912E
:101C40000895CF93DF930E94380FEC01811520E5B2
:101C5000920708F042C0811530E4930708F0BDC038
:101C6000883E910528F5803E910508F09DC0883A90
:101C7000910588F4853A910508F08FC0813091056F
:101C800009F492C0009709F48FC0049708F08CC043
:101C9000D0E0C0E089C08F3B910508F489C0805C2A
:101CA0009109C03CD105A0F30E94190EEC017CC043
:101CB0008115904250F4C11581E0D80708F074C036
:101CC000CD3ED10528F3D0656FC0C11590E3D9078B
:101CD00008F079C0CE019F70E7CF811525E5920706
:101CE00058F5811534E5930708F0A6C0811542E543
:101CF000940750F4C11581E5D80708F471C0DC2FB2
:101D0000CC27C16FD06A50C0982F969596959E01AA
:101D100023703327C115D34508F07FC0C1E0D0E060
:101D200002C0CC0FDD1F2A95E2F720E2929FC0018E
:101D30001124C82BD92B6FC0C11589E5D807A8F489
:101D4000C11598E5D90708F07CC0C11526E5D20772
:101D500008F09ECF8C2F0E94CF0FC82FD0E0DC2F31
:101D6000CC27CC27DF71D0621FC0C1153AE5D3075D
:101D700008F46CC0CE0190568115904208F088CFCF
:101D80008D2F8F710E94CF0F90E0982F8827882782
:101D90009F719C012C2BE901E6CFC55AD0E0C058B9
:101DA000DE4FC881D0E0D064CE01DF91CF9108959D
:101DB000C85AD0E0CC0FDD1FCE5ADE4F0990D88133
:101DC000C02DD464F1CFCE019927D3FF03C0EC011D
:101DD000D86CEACFEC01D06CE7CFDF70D06AE4CFEB
:101DE000CE01E4E096958795EA95E1F783702C2F74
:101DF00026952695237090E2299F90011124382B77
:101E00008C2F8370C1E0D0E002C0CC0FDD1F8A951B
:101E1000E2F7C22BD32BDC68C7CFC1E0D0E002C011
:101E2000CC0FDD1F2A95E2F730E2939FC001112409
:101E3000C82BD92BDA68B8CFD82FCC27C46FD06A7B
:101E4000B3CFDC2FCC27C06FD06AAECF8C2F8F7072
:101E50000E94CF0F34E0D695C7953A95E1F7CF7041
:101E60009C2FEC01D069A0CF0E94060E0C94210E8D
:101E700082389105B1F1B0F48133910509F475C050
:101E800048F48932910509F469C08A32910509F450
:101E900073C008958533910509F459C089339105BC
:101EA00001F10895833E9105A9F138F4803E910532
:101EB000F9F0823E910549F10895863E9105A9F118
:101EC000873E9105C9F1843E910519F52091E602FE
:101ED00021FF1FC08091E50284FD14C087EE90E0D1
:101EE00008952091E5022370A1F080EE90E008951E
:101EF0002091E50220FD47C03091E60230FF09C085
:101F000024FF44C090E080E004C02091E50222FD5F
:101F1000F7CF08952091E50222FD3BC03091E60203
:101F200030FDE3CF24FFF5CFEDCF2091E50223FF75
:101F3000F0CF24FDE7CFD2CF2091E50223FD2CC0C6
:101F40003091E60231FFEECF84EE90E008952091CB
:101F5000E50225FFDECF89E290E008952091E502B9
:101F600025FFD7CF85E390E008952091E50226FF75
:101F7000D0CF8AE290E008952091E50226FFC9CFF4
:101F800081E390E0089589E390E0089583EE90E086
:101F9000089582EE90E0089586EE90E00895909185
:101FA000E50292FF06C0282F28712830F9F4877FB8
:101FB000846093FF06C0282F28712831F1F4877EB2
:101FC00084612091E60220FF06C0382F3871383036
:101FD000D9F4877F816021FF06C0282F287128311E
:101FE000D1F4877E816194FD877E0895282F247126
:101FF0002430F9F68B7F8860DCCF282F24712431C0
:1020000001F78B7E8861DDCF382F3171313019F7C0
:102010008E7F8860E0CF282F2171213121F78E7EBD
:102020008861E1CF80E008950C94750C0E940C113A
:102030002FEF86E791E0215080409040E1F700C00B
:1020400000000E940C1180E00E94591080FF04C023
:102050000E9414100C94F51A08950C9416100E9406
:102060007B0C811102C00E94200D0E94860C80937F
:1020700010020E948E0C9093E6028093E5020E946B
:102080002D100E948A0C682F70E090E080E00E9482
:102090007B066091A0017091A1018091A2019091B5
:1020A000A3010C94B50608950C94531008950C9454
:1020B0005610E82FF0E0E751FD4F80810895089514
:1020C00080EA8A95F1F7089500C008950C94601095
:1020D000F894E82FE295EF70F0E031A1282F2F70EF
:1020E00081E090E001C0880F2A95EAF7982F90953B
:1020F000932391A392A1892B82A37894089584E3DA
:102100000E94681085E30E94681084E90E946810AC
:1021100086E60E94681087E90E94681086EC0C949D
:102120006810CF92DF92EF92FF920F931F93CF939D
:10213000DF93EC01D62E062F10E0C80189579E4F81
:102140007C01FC0180818F3F09F44BC0F894E82F9B
:10215000E295EF70F0E091A18F7021E030E001C0D6
:10216000220F8A95EAF7892F822B81A382A12095DD
:10217000282322A378940E946410E3E8F1E030E081
:1021800020E0C12C51E041914F3FA1F1A42FA29535
:10219000AF70B0E090968C9190E04F7002C0959532
:1021A00087954A95E2F780FD25C0852F022E01C054
:1021B000880F0A94EAF7C82A2F5F3F4F2430310571
:1021C00011F7F70180818F3F11F00E94681061E0E4
:1021D000C11001C060E08D2D0E946610C00FD11F9C
:1021E000C882DF91CF911F910F91FF90EF90DF9008
:1021F000CF90089580E0DFCF0E947F10A7EEB2E07D
:102200001C92E9EEF2E0108211961C92118282E09B
:102210000E9444110C94DF011F93CF93DF9300D0F1
:10222000CDB7DEB71A82198260E0CE0101960E9416
:10223000911061E0CE0101960E94911042E050E0C1
:10224000BE016F5F7F4F87EE92E00E94812611E012
:10225000009709F410E0892B31F089819A819093DD
:10226000E8028093E702212F42E069EE72E087EEF8
:1022700092E00E9445110E94E501812F0F900F907E
:10228000DF91CF911F9108950895FF920F931F93AF
:10229000CF93DF93F82E092F162FD72FC42F222389
:1022A00049F081E0809313020E94AA1A90931202CF
:1022B00080931102809113028823A1F08091110272
:1022C000909112020E94C21A059760F0EF2DF02F34
:1022D000A12FBD2FCE0FDF2FD11DEC17FD0741F42D
:1022E00010921302DF91CF911F910F91FF900895EB
:1022F00081918D93F2CF0E94261A0E94B7200E94EE
:10230000D2200E94E4200E94580DFBCF84E08093ED
:10231000EB028FE78093EC028091ED02807880647D
:102320008093ED02E8E1F2E08FEF8193DF01A95B9A
:10233000BF4F1C9292E0E036F907B9F710921702EE
:1023400010921602109215021092140208959091A4
:10235000EB02292F2F7095959595959595959F5200
:102360003CE0239F900D1124890F0895EF92FF9276
:102370001F93CF93DF93FB018F3A2CE5920708F070
:1023800085C08F394CE5940708F099C180395CE528
:10239000950750F583382CE5920708F04CC1813839
:1023A0004CE5940760F487375CE5950708F02BC18E
:1023B0008F322CE5920708F0DFC0D1E01DC18138D3
:1023C0004CE5940709F42CC182389C45B1F7828111
:1023D000882309F4FBC08091EB02982F9F709930FD
:1023E00008F0F4C09F5F25C18D392CE59207A0F558
:1023F00082394CE5940708F03BC180395CE59507CC
:1024000009F424C181399C45C1F68281882309F4ED
:10241000DDC02091EB02822F859585958595859568
:1024200086300CF0D3C091E0980F9295907F9595EF
:10243000959595959595392F3295307F2F70232B53
:102440002093EB0218160CF0C1C097FFBFC0829515
:10245000807F922F9F70E0C08D394CE5940709F47E
:1024600015C18E399C4509F0A8CF8281882309F4D3
:10247000ADC08091EC02982F9F779F3709F4A6C0DA
:10248000933708F01AC1935F9F77FEC0853B2CE518
:10249000920709F472C1C8F5813B5CE5950709F420
:1024A0003EC1D8F48F3A4CE5940709F41AC1803B39
:1024B0009C4509F082CF8281882309F487C020914E
:1024C000EC02322F331F3327331F9091ED02892FF7
:1024D0008770880F832B8F5F15C16091EC0230915C
:1024E000ED022281833BECE59E0709F43AC108F432
:1024F0002CC121112FE7862F881F8827881F632F63
:102500006770660F682B42E41BC1883B2CE592077D
:1025100009F446C180F4863B5CE5950709F42DC1BA
:10252000873B9C4509F049CF8281811137C18FEFEC
:10253000809316024BC08A3B4CE5940709F466C1B0
:1025400008F44FC18B3B9C4509F037CFD281609195
:10255000EC02862F881F8827881F6091ED02677024
:10256000660F682BDD2309F461C14FEF5FE183EF54
:1025700092E00E947B1B2AC01091EC02212F221FA7
:102580002227221FC091ED02C770CC0FC22B1F77EC
:10259000D28121ED280F30E0A901485E5D4F7A011C
:1025A000DD23C1F00E94A711D82F212F482F6C2FB7
:1025B00083EF92E00E945B1BF701E85BFF4F808195
:1025C0008F5F8083F70180818F3F11F0D0E014C0CE
:1025D000D083FCCFFA014081E85BFF4F80818150BE
:1025E00080838111F3CF212F6C2F83EF92E00E9423
:1025F0006B1B8FEFF70180838D2FDF91CF911F91A0
:10260000FF90EF9008952281222301F38757982F9E
:102610009F708091EB02807F892B8093EB02D6CF55
:102620008281882399F28091EB02982F9F7071F23A
:10263000915F9F70F0CF2281222341F28958982F19
:102640009295907F8091EB028F70E6CF82818823F4
:1026500009F4BCCF8091EB02982F959595959595AF
:1026600095959B3F0CF4B2CF915F9295907FECCF04
:102670002281222309F4AACF82599CE0899F902DC0
:1026800011249F778091EC02807815C08281882385
:1026900009F49CCF8091EC02982F9F7709F496CF94
:1026A00080789F3721F485678093EC028FCF9D302F
:1026B000D8F39D509F77892BF7CF8F67F5CF228175
:1026C000222309F483CF8F599091EC0280FB97F974
:1026D0009093EC02869587709091ED02987F892BFC
:1026E0007DC08281882309F471CF2091EC02322FC2
:1026F000331F3327331F9091ED02892F8770880F86
:10270000832B815F382F3F7080FB27F92093EC02E9
:10271000832F8695987F982B9093ED0257CF8281D7
:10272000882309F453CF6091EC02862F881F8827F5
:10273000881F6091ED026770660F682B20E04BE701
:1027400083EF92E00E944B1B41CF21112FE7862F90
:10275000881F8827881F632F6770660F682B40E4E7
:10276000EFCF21112FE7862F881F8827881F632F1F
:102770006770660F682B41E4E3CF828120E081110E
:102780002FE76091EC02862F881F8827881F6091B1
:10279000ED026770660F682B43E4D2CF81E0C8CEAC
:1027A0008281882309F412CF9091ED02292F26957A
:1027B000269526952F7081E0820F8F70880F880FE5
:1027C000880F9778892B8093ED02982F987709F0DE
:1027D000FDCE220F220F220F8778822B8093ED02ED
:1027E000F5CE8281882309F4F1CE8091ED02982FF5
:1027F000987709F4EBCE982F969596959695915FDC
:102800009F70990F990F990F877869CFD281609146
:10281000EC02862F881F8827881F6091ED02677061
:10282000660F682B40E050EED111A1CE50E040E0A1
:1028300083EF92E00E947B1BDFCE83EF92E00E9449
:102840007D1D80911402909115020E94C21A209160
:10285000ED022695269526952F702817190609F062
:10286000A0F50E94AA1A90931502809314028091F9
:102870001602882351F16091EC02862F881F882769
:10288000881F6091ED026770660F682B2091170218
:1028900041E083EF92E00E944B1B809116029091E1
:1028A000170287FF0DC0482F552741950CF450950E
:1028B000941715062CF41092170210921602089520
:1028C000890F87FD03C08093170208958FE7FBCF20
:1028D0008091AE0280FF12C06091070185E0689F81
:1028E000B0011124759567957595679560387105E8
:1028F000A8F561157105A1F1862F089581FF09C022
:102900006091070185E0689FB00111247595679576
:10291000EDCF6091070182FD0AC08091AD0288234E
:10292000D1F09091060160910701891728F085E0A8
:10293000689FB0011124DACF869FB001112485E091
:10294000869F9001879F300D1124692F70E0C90187
:102950000E946726CBCF65E070E0CECF8FE7089569
:1029600081E008958091AE0280FF0CC06091030168
:1029700070E075956795759567956115710549F1D5
:10298000862F089581FF06C06091030170E0759560
:102990006795F3CF6091030182FD0BC09091AC026B
:1029A0009923A1F06091020180910301961738F0FC
:1029B000682F70E06038710500F38FE70895899FF4
:1029C000C001112470E00E946726F4CF61E070E03E
:1029D000D7CF81E008958D3E31F40E94681481952F
:1029E0008093B20208958E3E19F40E946814F8CFC5
:1029F0008F3E31F40E94681481958093B10208954E
:102A0000803F19F40E946814F8CF893F29F40E948E
:102A1000B2148093B30208958A3F21F40E94B21445
:102A20008195F7CF8B3F31F40E94B214819580934A
:102A3000B40208958C3F19F40E94B214F8CF9FE0BD
:102A4000980F983070F4815F990B21E030E001C05D
:102A5000220F8A95EAF78091B002822B8093B00210
:102A600008958D3F31F48091AE0281608093AE0273
:102A700008958E3F21F48091AE028260F7CF8F3FA0
:102A8000B9F78091AE028460F1CF4091B1028D3EE2
:102A900059F48091B20287FF0DC01092B202411129
:102AA0000BC01092AD0208C08E3E81F48091B2023C
:102AB00018169CF3442381F08091B3029091B402E4
:102AC000892B09F05AC01092AC0208958F3E49F448
:102AD00047FFF0CF1092B1028091B2028111ECCF8A
:102AE000E0CF803F19F41416ACF3E4CF9091B30219
:102AF000893F29F41916F4F61092B302DBCF8A3F0E
:102B000019F497FFD7CFF8CF9091B4028B3F29F4F7
:102B100097FFD0CF1092B402CDCF8C3F19F4191685
:102B2000CCF3C8CF9FE0980F983090F4815F990B59
:102B300021E030E0B90102C0660F771F8A95E2F705
:102B4000CB0180959091B00289238093B002B2CFDF
:102B50008D3F31F48091AE028E7F8093AE02AACF7A
:102B60008E3F21F48091AE028D7FF7CF8F3F09F029
:102B7000A1CF8091AE028B7FF0CF08950E94AA1A58
:102B80009C019091B1028091B202982B21F0309378
:102B9000AB022093AA029091B3028091B402982BC9
:102BA00021F03093A9022093A8028FEA92E00C94BE
:102BB0003019EF92FF920F931F93CF93DF9300D0C2
:102BC00000D000D0CDB7DEB786E0EFEAF2E0DE015C
:102BD000119601900D928A95E1F7E090B102F09084
:102BE000B2020091B3021091B4021092B10210929D
:102BF000B2021092B3021092B4028E2D8F2991F07E
:102C00008091AA029091AB020E94C21AAC019091ED
:102C1000AD02992309F43FC080910801841715067D
:102C200008F447C0802F812B91F08091A8029091E9
:102C3000A9020E94C21AAC019091AC02992309F436
:102C400077C0809104018417150608F47FC0809135
:102C5000B1029091B202892B9091B302892B90918D
:102C6000B402892B11F00E94BE1586E0FE01319658
:102C7000AFEAB2E001900D928A95E1F726960FB681
:102C8000F894DEBF0FBECDBFDF91CF911F910F91A2
:102C9000FF90EF900895209109018AE0289F90010C
:102CA00011242417350708F0BDCF9F5F9093AD0224
:102CB00002C09F3FD1F7EE2059F00E9468149FEFA9
:102CC0001E140CF491E0899F802D11248093B10291
:102CD000FF2059F00E9468149FEF1F140CF491E03C
:102CE000899F802D11248093B2023091B102332349
:102CF00009F498CF2091B202222309F493CF45EB37
:102D00003403C0011124992359F09093B10245EB8B
:102D1000240390011124332339F03093B20282CF7F
:102D200081E08093B102F3CF81E08093B2027ACF49
:102D3000209105018AE0289F90011124241735076E
:102D400008F085CF9F5F9093AC0202C09F3FD1F700
:102D5000002359F00E94B2149FEF10160CF491E07A
:102D6000899F802D11248093B302112359F00E9472
:102D7000B2149FEF11160CF491E0899F802D11245D
:102D80008093B4023091B302332309F460CF2091D1
:102D9000B402222309F45BCF45EB3403C0011124B4
:102DA000992359F09093B30245EB24039001112429
:102DB000332339F03093B4024ACF81E08093B302D9
:102DC000F3CF81E08093B40242CF86E0EFEAF2E0F5
:102DD000DF011D928A95E9F71092AD021092AC02C4
:102DE0001092AE0208950F931F93CF93DF93C42FD9
:102DF000D22FFC0182818823C9F04093B7020E9440
:102E0000AA1A9093B6028093B50280E28C0F8830A4
:102E100008F050C0C77081E001C0880FCA95EAF77A
:102E2000DF91CF911F910F910C94A9031091B702DC
:102E3000141335C08091B5029091B6020E94C21A57
:102E4000883C910560F5C0E2CD0F1D17B9F080E216
:102E5000810F883040F4177081E001C0880F1A9507
:102E6000EAF70E94B003C83048F481E09D2F9770C4
:102E700001C0880F9A95EAF70E94A903802F0E944B
:102E8000A103C830B8F4D77081E001C0880FDA958B
:102E9000EAF7DF91CF911F910F910C94B00380E27C
:102EA0008C0F883038F4C77081E001C0880FCA9554
:102EB000EAF7EFCFDF91CF911F910F9108950F9314
:102EC0009C01CB01243F4CE5340759F1A8F4293D7E
:102ED000FCE53F0701F12A3D4CE53407D1F1283DDF
:102EE0003C4591F406E221EE41EE68ED7CE50E945E
:102EF000F31680E00F910895263FFCE53F07E9F0C7
:102F0000B0F0273F3C45F9F0FC018281882339F17C
:102F10001092B702EFCF07E225EE45EE69ED7CE5B2
:102F2000E6CF06E221EE40EE64EF7CE5E0CF07E27B
:102F300025EE44EE65EF7CE5DACF06E221EE42EEC7
:102F400066EF7CE5D4CF07E225EE46EE67EF7CE541
:102F5000CECF08E221E045EE6AED7CE5C8CF81E006
:102F6000C9CFCF93DF93EC01FB018281882309F461
:102F700020C1C430FDE5DF07C8F5CB3F9CE5D9078C
:102F800030F49E0122503C452431310598F50E94D1
:102F90008E0C9093E6028093E502C031FCE5DF07DA
:102FA00009F4E0C008F061C0C8309CE5D90709F415
:102FB000CBC088F5C430FCE5DF0709F4B3C0E8F402
:102FC000C2309CE5D90709F4A7C08091E502826070
:102FD000C330DC4509F4A3C08091E5029091E6027C
:102FE0000E949C0C0E94220680E004C0C236EDE5DF
:102FF000DE0769F2DF91CF9108958091E50280614B
:10300000C630FCE5DF0709F48AC008F48FC0809160
:10301000E502806284C08091E5028D7FCC309CE522
:10302000D90709F47CC070F48091E5028C60CA3045
:10303000FCE5DF0709F473C008F48AC08091E5025B
:103040008E7F6DC08091E502877FCE309CE5D907E9
:1030500009F465C08091E5028B7FCF30DC4508F430
:103060005EC08091E5028F7E5AC0CD3FFCE5DF0750
:1030700009F474C040F5C4319CE5D90709F48AC04D
:1030800058F4C231FCE5DF0709F474C008F46EC0DF
:103090008091E502837F43C0CB3F9CE5D90709F4CB
:1030A00049C008F04DC0C531DC4509F095CF80918D
:1030B000E50282FB992790F921E0922790FB82F9A3
:1030C00090FB83F92CC0C1308DE5D80709F458C0B6
:1030D00088F48091E6028360CF3FECE5DE0769F17A
:1030E0008091E6028D7FC115DD4538F18091E602C1
:1030F0008C7F23C0C3308DE5D80709F458C008F48D
:1031000052C0C236DD4509F067CF9091E502892FA4
:103110008F7E94FF806103C08091E502816080937F
:10312000E5025ACF8091E5028460F9CF8091E502F3
:103130008860F5CF8091E60281608093E6024CCFF3
:103140008091E6028260F9CF8091E5028064E7CF4A
:103150000E9422068091E5028068E1CF8091E6021C
:103160008E7FEBCF8091E5028F7DD9CF8091E502F4
:103170008F7BD5CF0E9422068091E5028F77CFCF3B
:103180008091E602982F909591708E7F892B90FB0D
:1031900081F9D3CF0E9422069091E502892F97FBF7
:1031A00087F98058BCCF81E00E94220D15CF80E0C6
:1031B000FBCF81E01FCFCF93DF93EB0186319C459E
:1031C00011F50E94B80B9A81992399F08A7A91E0BF
:1031D00009F490E09093B802811109C089E20E943D
:1031E000720B0E94080C80E0DF91CF91089585E377
:1031F000F6CF8091B802811104C089E20E94790B58
:10320000F0CF85E3FBCF81E0EFCF9093BE028093B8
:10321000BD020895E091BD02F091BE02309721F009
:103220000190F081E02D099480E00895E091BD02C5
:10323000F091BE02309799F020912001222359F09D
:103240002091E50227FF07C0DC012C9111962C93F9
:10325000119725E02C930280F381E02D09940895C5
:10326000E091BD02F091BE02309739F022E0DC011E
:103270002C930480F581E02D099408952091BB02E0
:103280003091BC022817390771F09093BC028093EB
:10329000BB02E091BD02F091BE02309721F00680A2
:1032A000F781E02D099408952091B9023091BA0276
:1032B0002817390771F09093BA028093B902E09110
:1032C000BD02F091BE02309721F00084F185E02D1F
:1032D00009940895FC01329680912001882321F001
:1032E0008091E5029EE187FF96E080E0915008F42E
:1032F000089521912223D1F38F5FF8CF662301F146
:10330000209120012223F1F02091E50227FF1AC02D
:10331000462F4695469546954E3190F4677021E0CC
:1033200030E002C0220F331F6A95E2F7840F911D2F
:10333000FC01828190E02823392381E0232B69F46A
:1033400080E00895FC01329608962191261721F01D
:10335000E817F907D1F7F4CF81E008959C01FC014B
:1033600032969FEF80E04191461751F09F3F19F44C
:10337000411101C0982F8F5F8630A9F79F3F09F454
:103380000895290F311D97FD3A95F901628308953B
:10339000FC01329608962191261303C0DF01119794
:1033A0001C92E817F907B9F70895E62FE695E69518
:1033B000E695EE3168F4E80FF92FF11D677021E012
:1033C00030E001C0220F6A95EAF78281822B828366
:1033D0000895E62FE695E695E695EE3170F4E80F50
:1033E000F92FF11D677021E030E001C0220F6A95CE
:1033F000EAF72095828128232283089520912001D5
:10340000222329F02091E50227FD0C94D5190C9474
:10341000AE1920912001222329F02091E50227FDF9
:103420000C94E9190C94C819FC0132968091200182
:10343000882351F08091E50287FF06C08EE1DF010D
:103440001D928A95E9F7089586E0F9CF08950895C9
:1034500008950C94281A8091E403843049F10E9465
:10346000291A80E00E9457021092BF0288E190E082
:1034700020E40FB6F894A895809360000FBE2093C7
:10348000600083B7817F846083BF83B7816083BF1F
:103490007894889583B78E7F83BF0FB6F894A895EC
:1034A00080916000886180936000109260000FBE80
:1034B000089508950E94271A0E940C110E94591A1B
:1034C00080E00E94591091E0811107C081E00E94C4
:1034D000591091E0811101C090E0892F089508955D
:1034E0000C946F1A0E9422060E940A190E94570229
:1034F0000C94701A1F921FB61F9211248F939F93E2
:10350000AF93BF938091BF02811113C08091EF02EE
:103510009091F002A091F102B091F2024196A11DAA
:10352000B11D8093EF029093F002A093F102B0934B
:10353000F202BF91AF919F918F911F901FBE1F907C
:10354000189582E084BD93E095BD9AEF97BD809376
:103550006E0008952FB7F8948091EF029091F002D9
:10356000A091F102B091F2022FBF08952FB7F89405
:103570006091EF027091F0028091F1029091F2025D
:103580002FBF08959C014FB7F8948091EF0290915E
:10359000F002A091F102B091F2024FBF821B930B97
:1035A000089578941F921FB61F9211248F939F93B2
:1035B000AF93BF938091EF029091F002A091F1023E
:1035C000B091F2020196A11DB11D8093EF0290937C
:1035D000F002A093F102B093F202BF91AF919F91DC
:1035E0008F911F901FBE1F90189581E08093E0007F
:1035F00080E28093D8001092C9008FE19EE4019789
:10360000F1F700C0000087E090EBDC018093ED0350
:103610009093EE03A093EF03B093F00388E19CE056
:103620000FB6F894A895809360000FBE9093600049
:10363000FFCF90939901809398010895881F882760
:10364000881F089591E0883F08F490E0892F08953D
:10365000982F907F903BE9F040F49039D1F0903A68
:10366000C1F09038B1F080E00895903D19F020F459
:10367000903CC9F782E00895903E59F0903F99F749
:10368000815F8F3080F7E82FF0E0E757FE4F8081B1
:10369000089583E008950F93022F0F77242F2F773B
:1036A0006F70462F406BDC01ED91FC9163E070E0A0
:1036B00009950F9108950F93022F0F77242F2F77DD
:1036C0006F70462F4069DC01ED91FC9163E070E082
:1036D00009950F9108950F93022F0F77242F2F77BD
:1036E0006F70462F4068DC01ED91FC9163E070E063
:1036F00009950F9108950F931F93411520E25207EA
:1037000044F49A01305E4115504E2CF430E020E034
:1037100002C02FEF3FE38901000F012F001F110BA3
:1037200011952F776F70462F406EDC01ED91FC9163
:1037300063E070E009951F910F910895FC01738378
:1037400062830895FC01758F648F0895CF93DF9392
:10375000EC011DA21FA21EA2BC01685D7F4F40ECC0
:1037600088519F4F0E94B11D1B821A821D821C82AC
:103770001F821E82198618861B861A861D861C8645
:103780001F861E86198A188A1B8A1A8A1D8A1C8A15
:103790001F8A1E8A198E188E1B8E1A8E1D8E1C8EE5
:1037A0001F8E1E8E19A218A2DF91CF910895EF925D
:1037B000FF920F931F93CF93DF93EA018A01060FC5
:1037C000111D88519F4F7C01C017D10739F4DF913B
:1037D000CF911F910F91FF90EF9008956991C701CC
:1037E0000E94B81DF1CFFC01718360830895FC0134
:1037F00071A360A30895AF92BF92CF92DF92EF9230
:10380000FF920F931F93CF93DF9300D00F92CDB70A
:10381000DEB77C016B01142FB22EA02EDC01959631
:103820008C9195978430A9F55A96ED91FC9130973B
:10383000E9F1CB01019763E070E00E945326CB01D0
:10384000880F991F860F971F4983BA820B834C2DCF
:10385000481B9E012F5F3F4FBC01C7010995D7014F
:103860005E96ED91FC91309731F00A2D2B2D412F72
:10387000B601C70109950F900F900F90DF91CF917E
:103880001F910F91FF90EF90DF90CF90BF90AF907E
:1038900008956230710509F455C06330710599F0DF
:1038A0006130710509F481C0D12CC12CD7015C961F
:1038B000ED91FC91309799F20A2D2B2D412FB601F5
:1038C000C7010995CCCF842F807F803A11F148F44D
:1038D0008038D1F0803951F7D7011496ED91FC91E1
:1038E0000AC0803ED9F0803FF1F0803BF9F6D70165
:1038F0001296ED91FC913097C9F2123FE9F02A2D12
:103900004B2D612F6F701BC0D7011696ED91FC9166
:10391000F2CFD7011896ED91FC91EDCFD7011A9611
:10392000ED91FC91E8CF423F09F6D7011C96ED914D
:10393000FC91309709F4BACF2A2D4B2D62EFC701C5
:1039400009958DCF842F807F803DB1F0803FC9F0F5
:10395000803C09F0ABCFD7011E96ED91FC913097DA
:1039600009F4A4CF812F8D7F4B2D612F6F70813F84
:1039700089F0C701099573CFD7015096ED91FC915D
:10398000EECF433F51F4D7015296ED91FC91309721
:1039900009F48CCF4B2D612FECCF413F09F086CF3E
:1039A000D7015496ED91FC91F2CF842F0E94221BF7
:1039B000882359F0D7015696ED91FC91309709F480
:1039C00075CF612FC70109954ACF163F09F06ECF19
:1039D000D7015896ED91FC91F1CFFF920F931F9371
:1039E000CF93DF93EC01162F862F0E94221B882392
:1039F00091F0FDA081E08DA300E020E0412F61E087
:103A000070E0CE010E94FB1BFDA2DF91CF911F91C0
:103A10000F91FF900895812F0E941E1B4DA18823B6
:103A200009F443C0443029F01AA381E090E09FA339
:103A30008EA3812F0E94281B813051F08823A9F08A
:103A4000823089F0833079F01DA21FA21EA2DDCF43
:103A50008DA300E020E0412F61E070E0CE010E94E4
:103A6000FB1B1DA2D2CF8DA3D0CF103FB1F0173FCB
:103A700059F72EA13FA1C90163E070E00E945326CF
:103A8000FE01E80FF91F12A3B9016F5F7F4F7FA3FB
:103A90006EA30CA12BA14AA1E1CF84E08DA31AA3B0
:103AA00081E090E09FA38EA3B0CF442309F4ADCF73
:103AB0002EA13FA1C90163E070E00E945326FE01E0
:103AC000E80FF91F12A3B9016F5F7F4F7FA36EA3A9
:103AD0008130910569F0029709F097CF0CA12BA1D5
:103AE0004AA1CE010E94FB1B8DA18430C9F68DCF67
:103AF00000E0423009F089CFF2CFCF92DF92EF920F
:103B0000FF920F931F93CF93DF93EC01E8A1F9A1EC
:103B1000309709F009956E0188EEC80ED11CC601D8
:103B20000E94E71D10E000E0E82EF12C0E151F05A5
:103B300048F0DF91CF911F910F91FF90EF90DF90B0
:103B4000CF90089560E0C6010E94FB1D682FCE0152
:103B50000E94ED1C61E0C6010E940B1E0F5F1F4F0B
:103B6000E5CFFC0142837483638311821082089540
:103B70001F93CF93DF93EC01162F0E94221E482F34
:103B8000298130E0C90101966A8170E00E946726B0
:103B900058815817190641F4842F0E94251E80E091
:103BA000DF91CF911F9108958B819C81280F391F40
:103BB000F9011083898190E001966A8170E00E948A
:103BC00067268983842F0E94251E81E0E9CFCF9349
:103BD000DF93EC010E94221E99812881921740F008
:103BE000C92FC21B0E94251E8C2FDF91CF910895F3
:103BF000CA819C0FF5CFFC018081860F9927991F00
:103C0000628170E00E94672623813481280F391F6A
:103C1000F901808108951F93CF93DF93EC01162F54
:103C20000E94221E282F8881810F9927991F6A815F
:103C300070E00E9467268883822FDF91CF911F91C9
:103C40000C94251E8FB7F89408958FBF089508959A
:103C500008950F931F93CF93DF9300D000D000D02F
:103C60000F92CDB7DEB78C01CE0101960E94B22033
:103C700081110BC027960FB6F894DEBF0FBECDBFE3
:103C8000DF91CF911F910F9108958A810E94281B87
:103C90009A819D839B819E839C819F8381110AC011
:103CA0008981843079F0873069F0863069F0853019
:103CB000D9F681E0AE014B5F5F4F682FC8010E94CB
:103CC000D71BD2CF83E0F6CF82E0F4CFDF92EF9222
:103CD000FF920F931F93CF93DF9300D000D0CDB707
:103CE000DEB77B01142FD22E4A832B830C83842FC3
:103CF0000E94281B811129C082E0E816F10401F11D
:103D000083E0E816F10439F0EA94EF2869F485E0DD
:103D1000173F21F404C087E0073F09F084E089835E
:103D2000CE0101960E94AD200F900F900F900F9042
:103D3000DF91CF911F910F91FF90EF90DF90089549
:103D400087EFD812EBCF86E0EACF12951F70198368
:103D5000E7CF0E94861183EF92E00E94A61B66E6E1
:103D60007EE183EF92E00E94F31B69E27EE183EF44
:103D700092E00E94F71B67E27EE183EF92E00E94EF
:103D8000A21B68E27EE183EF92E00C949E1B9B01F4
:103D90004091E4034430C1F4FC0191819F70909301
:103DA000E90050E040E064E070E0C9010E94732146
:103DB00081110BC09091E80095FD07C09091E8003B
:103DC0009E779093E800089582E008952091E4039F
:103DD000243091F4FC0181818F708093E9009091EF
:103DE000F3008091F200892B49F08091E8008E77F2
:103DF0008093E8000C94212382E0089580E00895E8
:103E0000FC018091E403843059F491819F70909378
:103E1000E9008091E80080FF03C0CF010C94E61E0A
:103E200008959B014091E403443011F080E008952F
:103E3000FC0196819F709093E9008091E80082FFD9
:103E4000F5CF8091E80085FFF1CF50E040E064E0DD
:103E500070E0C9010E94C2218091E80085FD05C083
:103E60008091E8008B778093E80081E0089580914D
:103E7000E30208959091E403943031F58093C002F9
:103E80007093C2026093C10282E08093E9008FEFD9
:103E90009091E800815095FD06C095ED9A95F1F757
:103EA00000008111F5CF8091E80085FF0DC050E042
:103EB00040E063E070E080EC92E00E94732180912A
:103EC000E8008E778093E8000895BC0184E00C94AC
:103ED0003A1FBC0183E00C943A1F9C0182E080935E
:103EE000E9009FEF8091E800915085FD06C085EDC7
:103EF0008A95F1F700009111F5CF8091E80085FFD8
:103F00000CC050E040E066E070E0C9010E947321FF
:103F10008091E8008E778093E8000895CF93DF9337
:103F2000EC01809120018823B1F18091E50287FFA7
:103F300032C060E282E08093E9008FEF9091E80068
:103F4000815095FD06C095ED9A95F1F7000081111D
:103F5000F5CF8091E80085FF1BC08091200170E0C3
:103F600050E040E0811104C050E040E068E070E0C3
:103F7000CE010E9473218091E8008E778093E80043
:103F800080E2FE01A3ECB2E001900D928A95E1F788
:103F9000DF91CF91089568E081E0CDCF8091E30378
:103FA000811109C00E9452230E94AF238091E20038
:103FB00084608093E20008951092E30308950895C9
:103FC0000895089542E061EC81E00E94CE2242E231
:103FD00061EC82E00E94CE2242E361E883E00E942D
:103FE000CE2242E361E884E00C94CE228091E60385
:103FF000833009F45FC030F48130C1F1823009F4BC
:104000009BC008958A3009F487C08B3009F46DC0D5
:10401000893009F04EC08091E503813209F049C032
:104020008091E9039091EA03029708F042C08091E1
:10403000E800877F8093E8008091E80082FF35C028
:104040009091F3008091F200029729F48091F100A1
:104050008B7F813021F48091F1008093E302809185
:10406000E8008B778093E8000C9402238091E503AD
:10407000813AF9F48091E800877F8093E80080918D
:10408000E9039091EA03892B61F460E283EC92E00A
:1040900070E00E9411228091E8008B778093E80005
:1040A000089560E090E080E0F3CF8091E403811117
:1040B000C3CF08958091E503813AD9F78091E90350
:1040C0009091EA03892BA9F78091E800877F80937C
:1040D000E8008091E80080FFFCCF80912001809370
:1040E000F1008091E8008E77BDCF8091E5038132A9
:1040F00001F78091E9039091EA03892BD1F6809131
:10410000E800877F8093E8000E9402238091E70304
:10411000809320010C9422068091E503813249F6B8
:104120008091E800877F8093E8000E9402238091BD
:10413000E8038093E40208958091E503813A09F051
:10414000B8CF8091E800877F8093E8008091E800F5
:1041500080FFFCCF8091E402C2CFBC018AE091E0F5
:104160000C94C71EBC018AE091E00C94111F0E94C0
:10417000A91E84B7877F84BF0FB6F894A895809155
:104180006000886180936000109260000FBE80E83C
:1041900090E00FB6F89480936100909361000FBE99
:1041A0000C94480D0E9452230E94AF23E2EEF0E0EF
:1041B00080818460808378940E9438260E945C0D00
:1041C00086E191E00C9405198091E403853031F487
:1041D0008091E403853041F00E94721A0E94620DC2
:1041E0008AE091E00C94001F0E942B1A8091E20358
:1041F000882371F30E945A1A882351F30E945D218B
:104200000E942206E5CF0C940521292F3327233065
:10421000310519F168F42130310509F444C0223028
:10422000310509F445C090E080E030E020E025C091
:104230002132310549F122323105A9F780E490E0BD
:1042400027E432E061157105C1F086EB90E021E9C9
:1042500031E06130710589F0E6CF99278130910511
:1042600081F0009729F00297F1F6ECEBF0E002C044
:10427000ECEDF0E0849190E09F01FA01318320831E
:104280000895E8ECF0E0F6CF89E090E022EF30E02E
:104290006115710591F389E090E02BE031E0613028
:1042A000710559F3C0CF82E190E02FE731E0E5CF0F
:1042B0008FE990E020EE30E0E0CF80E189BD82E13F
:1042C00089BD09B400FEFDCF8091D8008F7D809319
:1042D000D8008091E00082608093E0008091E0004F
:1042E00081FDFCCF0895AF92BF92CF92DF92FF92F3
:1042F0000F931F93CF93DF936C01EB018A010E9410
:104300002123F82E811123C00115110539F0F80180
:1043100080819181C81BD90BC80ED91EB12CA12C4C
:104320002097A9F08091E80085FD22C08091E800E7
:104330008E778093E80001151105A1F0F8018081C6
:104340009181A80EB91EB182A08285E0F82E8F2D32
:10435000DF91CF911F910F91FF90DF90CF90BF9091
:10436000AF9008950E9421238823D1F2F82EEFCF39
:10437000F60181916F018093F1002197FFEFAF1A51
:10438000BF0ACECFAF92BF92CF92DF92FF920F9330
:104390001F93CF93DF936C01EB018A010E942123CD
:1043A000F82E811123C00115110539F0F801808123
:1043B0009181C81BD90BC80ED91EB12CA12C2097F6
:1043C000A9F08091E80085FD22C08091E8008B77FC
:1043D0008093E80001151105A1F0F8018081918119
:1043E000A80EB91EB182A08285E0F82E8F2DDF9134
:1043F000CF911F910F91FF90DF90CF90BF90AF9022
:1044000008950E9421238823D1F2F82EEFCF8091C6
:10441000F100F60181936F012197FFEFAF1ABF0AF8
:10442000CECFFC018091EB039091EC0386179707A8
:10443000A0F06115710529F49091E8009E779093A2
:10444000E80090E06115710551F4911108C0809168
:10445000E80082FF34C080E00895BC01F2CF809173
:10446000E4038823C1F18530C1F18091E80083FD28
:1044700030C08091E80082FDEACF8091E80080FFA3
:10448000E1CF8091F3002091F200382F6115710582
:1044900019F02830310558F091E02830310509F045
:1044A00090E02091E8002E772093E800CBCF819117
:1044B0008093F100615071092F5F3F4FE7CF8091EA
:1044C000E403882341F0853041F08091E80083FFC8
:1044D000BECF81E0089582E0089583E00895FC0155
:1044E0008091EB039091EC0386179707A0F061157C
:1044F000710529F48091E8008E778093E80090E0C0
:104500006115710551F4911108C08091E80082FF96
:1045100035C080E00895BC01F2CF8091E403882388
:10452000C9F18530C9F18091E80083FD31C08091E7
:10453000E80082FDEACF8091E80080FFE1CF809122
:10454000F3002091F200382F6115710519F0283021
:10455000310558F091E02830310509F090E0809164
:10456000E8008E778093E800CBCF84918093F100B0
:104570003196615071092F5F3F4FE6CF8091E40380
:10458000882341F0853041F08091E80083FFBDCF62
:1045900081E0089582E0089583E00895982F973090
:1045A00028F08F708093E90081E008959093E900EE
:1045B000242F762F50E0981731F07091EC00209165
:1045C000ED005091F00021FD02C09F5FE8CF3091D7
:1045D000EB003E7F3093EB003091ED003D7F309358
:1045E000ED003091EB0031603093EB007093EC0004
:1045F0002093ED005093F0002091EE0027FDE5CFD1
:1046000080E008958091E50387FF13C08091E80062
:1046100082FF06C08091E8008B778093E80004C099
:104620008091E4038111F2CF08958091E4038823FF
:10463000D9F38091E80080FFF8CF8091E8008E7771
:10464000ECCF2091E4003091E50095E6A90120919E
:10465000EC00822F817020FF06C08091E80080FF6F
:1046600006C080E008952091E80022FD1AC08091E4
:10467000E403882389F0853089F08091EB0085FD83
:104680000FC02091E4003091E50042175307F9F282
:104690009150E1F684E0089582E0089583E0089562
:1046A00081E008950E94C0230E94C823E0EEF0E05C
:1046B000808181608083E8EDF0E080818F77808366
:1046C00019BCA7EDB0E08C918E7F8C9380818F7E9A
:1046D00080831092E30308950F931F93CF93DF938A
:1046E0000E94C0230E94C823C8EDD0E088818F7744
:1046F000888388818068888388818F7D888319BCBE
:104700001092E4031092E0031092E2031092E1038E
:1047100000EE10E0F80180818B7F808388818160CA
:10472000888342E060E080E00E94CE22E1EEF0E08B
:1047300080818E7F8083E2EEF0E0808181608083E3
:10474000808188608083F80180818E7F808388816A
:1047500080618883DF91CF911F910F910895E8EDDB
:10476000F0E080818F7E8083E7EDF0E080818160E2
:10477000808384E082BF81E08093E3030C946C2308
:10478000E8EDF0E080818E7F80831092E200089552
:104790001092DA001092E10008951F920F920FB666
:1047A0000F9211242F933F934F935F936F937F93B7
:1047B0008F939F93AF93BF93EF93FF938091E1000B
:1047C00082FF0BC08091E20082FF07C08091E10070
:1047D0008B7F8093E1000E9437268091DA0080FF72
:1047E00019C08091D80080FF15C08091DA008E7FBB
:1047F0008093DA008091D90080FF96C080E189BD66
:1048000082E189BD09B400FEFDCF81E08093E4031D
:104810000E94CE1F8091E10080FF19C08091E200CC
:1048200080FF15C08091E2008E7F8093E20080912E
:10483000E20080618093E2008091D80080628093E2
:10484000D80019BC85E08093E4030E94E01F8091AA
:10485000E10084FF2BC08091E20084FF27C080E14B
:1048600089BD82E189BD89B5982F917080FFFBCF0A
:104870008091D8008F7D8093D8008091E1008F7E59
:104880008093E1008091E2008F7E8093E20080912E
:10489000E20081608093E2008091E003882309F4C4
:1048A00049C084E08093E4030E94E11F8091E1000D
:1048B00083FF29C08091E20083FF25C08091E10041
:1048C000877F8093E10082E08093E4031092E0030D
:1048D0008091E1008E7F8093E1008091E2008E7FE5
:1048E0008093E2008091E20080618093E20042E0E8
:1048F00060E080E00E94CE228091F000886080938A
:10490000F0000E94DF1FFF91EF91BF91AF919F9147
:104910008F917F916F915F914F913F912F910F9068
:104920000FBE0F901F90189519BC1092E4030E94BF
:10493000DC1F70CF8091E30087FD93E09093E40348
:10494000B3CF1F920F920FB60F9211242F933F9364
:104950004F935F936F937F938F939F93AF93BF9387
:10496000CF93DF93EF93FF93D091E900DF708091B5
:10497000EC00C82FC17080FDC0E81092E900809162
:10498000F000877F8093F00078940E94E5241092D5
:10499000E9008091F00088608093F000CD2BCF700B
:1049A000C093E900FF91EF91DF91CF91BF91AF915B
:1049B0009F918F917F916F915F914F913F912F9137
:1049C0000F900FBE0F901F9018951F93CF93DF93FA
:1049D000CDB7DEB7AA970FB6F894DEBF0FBECDBF36
:1049E00085EE93E02091F100FC012193CF01F3E0EB
:1049F0008D3E9F07B9F70E94F61F8091E80083FF64
:104A00001EC18091E5039091E6039A3008F017C12A
:104A1000E92FF0E0E051F94D0C947B26803899F0B5
:104A2000823809F00CC18091E9038F70873008F05B
:104A300006C18093E9008091EB0085FB882780F90F
:104A40001092E90006C08091E1039091E203911178
:104A500082609091E800977F9093E8008093F10046
:104A60001092F1008091E8008E77E5C0882309F468
:104A7000D3C0823009F0E3C08091E7038111D6C032
:104A80008091E9038F702FEF280F263008F0D7C0F0
:104A90008093E9002091EB0020FFC8C0933031F4EF
:104AA0008091EB0080628093EB00C0C09091EB009E
:104AB00090619093EB0021E030E001C0220F8A95D5
:104AC000EAF72093EA001092EA008091EB008860F8
:104AD000EACF8111B4C01091E7031F778091E30002
:104AE0008078812B8093E3008091E800877F80931A
:104AF000E8000E9402238091E80080FFFCCF8091B3
:104B0000E30080688093E30082E0111183E08093EA
:104B1000E40395C08058823008F091C08091E7038B
:104B20009091E8038C3D23E09207A1F583E08A830E
:104B30008AE289834FB7F894DE01139620E03EE0C5
:104B400051E2E32FF0E050935700E49120FF03C0BF
:104B5000E295EF703F5FEF708E2F90E0EA30C0F08B
:104B6000C7968D939D932F5F243159F74FBF809146
:104B7000E800877F8093E8006AE270E0CE0101964A
:104B80000E9411228091E8008B778093E80057C043
:104B9000C096E7CF6091E9037091EA03AE014F5FE1
:104BA0005F4F0E940321BC01892B09F448C09091FA
:104BB000E800977F9093E80089819A810E946F2294
:104BC000E1CF8038E1F58091E800877F8093E800AD
:104BD0008091E0038093F10045CF811130C0909126
:104BE000E703923060F58091E800877F8093E800CA
:104BF0009093E0030E9402238091E003882311F048
:104C000084E005C08091E30087FDFACF81E08093C6
:104C1000E4030E94E21F13C08091E703813079F41E
:104C200081E0933009F080E08093E2031092E90084
:104C30008091E800877F8093E8000E9402238091A2
:104C4000E80083FF0AC08091E800877F8093E80036
:104C50008091EB0080628093EB00AA960FB6F894E7
:104C6000DEBF0FBECDBFDF91CF911F910895089594
:104C7000CF938091E4038823A1F0C091E900CF7025
:104C80009091EC00892F817090FD80E8C82B1092E4
:104C9000E9008091E80083FD0E94E524CF70C09375
:104CA000E900CF910895AA1BBB1B51E107C0AA1FC1
:104CB000BB1FA617B70710F0A61BB70B881F991FBD
:104CC0005A95A9F780959095BC01CD01089597FB61
:104CD000072E16F4009407D077FD09D00E945326C2
:104CE00007FC05D03EF4909581959F4F08957095EF
:104CF00061957F4F0895EE0FFF1F0590F491E02D11
:104D00000994FB01DC0104C08D910190801921F40C
:104D100041505040C8F7881B990B0895F999FECF70
:104D200092BD81BDF89A992780B50895A8E1B0E0B9
:104D300042E050E00C94C226262FF999FECF92BD96
:104D400081BDF89A019700B4021639F01FBA20BD50
:104D50000FB6F894FA9AF99A0FBE08950396272F82
:104D60000E949D260E949C26252F0E949D26242F6E
:104D70000C949D260196272F0E949D260C949C261C
:104D8000DC01CB01FC01F999FECF06C0F2BDE1BD0B
:104D9000F89A319600B40D9241505040B8F70895FA
:104DA000F894FFCFEB03EB03430443049504B104F1
:104DB00018041804BC04480557055705B305180422
:104DC0001804BC05310631063A063A063C063A0696
:104DD0003A063A063106310641063A063A064106D7
:104DE0000E2536251F2636251F2669258A251F26CE
:044DF000E125ED25A7
:104DF400E2012808641E140A321E038340000001E5
:104E0400044000000100371F8E1F6D1F691F651FBE
:104E140001E200E900EA00B500B600B700CD008366
:104E240001CC008A0192019401210223022402256B
:104E340002260227022A02B300B4006F0070008128
:104E44008283E200E900EA00B500B600B700CD00B5
:104E54008301CC008A0192019401210223022402DD
:104E64002502260227022A02B300B4006F00700054
:104E7400818283946697C6343502030200000100E0
:084E840001010101010001011F
:00000001FF
